{"abi":[{"type":"function","name":"verify","inputs":[{"name":"proof","type":"bytes","internalType":"bytes"},{"name":"publicInputs","type":"bytes32[]","internalType":"bytes32[]"}],"outputs":[{"name":"","type":"bool","internalType":"bool"}],"stateMutability":"view"},{"type":"error","name":"ProofLengthWrong","inputs":[]},{"type":"error","name":"PublicInputsLengthWrong","inputs":[]},{"type":"error","name":"ShpleminiFailed","inputs":[]},{"type":"error","name":"SumcheckFailed","inputs":[]}],"bytecode":{"object":"0x60e0604052348015600e575f5ffd5b506020608052600560a052600460c05260805160a05160c0516154496100565f395f61057101525f818161061d01528181610bf60152610c9201525f61051a01526154495ff3fe608060405234801561000f575f5ffd5b5060043610610029575f3560e01c8063ea50d0e41461002d575b5f5ffd5b61004061003b366004615052565b610054565b604051901515815260200160405180910390f35b5f6100626101b8602061512e565b8414610081576040516376ba560560e11b815260040160405180910390fd5b5f61008a610198565b90505f61009787876101ad565b604083015190915084146100be5760405163fa06659360e01b815260040160405180910390fd5b5f6100d5828787865f015187604001516001610455565b90506101238686808060200260200160405190810160405280939291908181526020018383602002808284375f92019190915250508451606081015160809091015190925090506001610504565b815160a001525f6101348383610615565b905080610154576040516313f8744360e31b815260040160405180910390fd5b5f610160848685610716565b905080610180576040516352ec174560e11b815260040160405180910390fd5b81801561018a5750805b9a9950505050505050505050565b6101a0614836565b6101a8610f8a565b905090565b6101b5614bb4565b6101ca6101c560805f8587615145565b611868565b81526101de6101c561010060808587615145565b60208201526101f66101c56101806101008587615145565b604082015261020e6101c56102006101808587615145565b60a08201526102266101c56102806102008587615145565b60c082015261023e6101c56103006102808587615145565b60608201526102566101c56103806103008587615145565b60e082015261026e6101c56104006103808587615145565b60808201526104005f5b601c811015610305575f5b60088110156102fc576102af86848761029d82602061516c565b926102aa93929190615145565b61195c565b84610100015183601c81106102c6576102c661517f565b602002015182600881106102dc576102dc61517f565b6020020181815250506020836102f2919061516c565b9250600101610283565b50600101610278565b505f5b60288110156103595761032285838661029d82602061516c565b83610120015182602881106103395761033961517f565b60200201818152505060208261034f919061516c565b9150600101610308565b505f5b6103686001601c615193565b8110156103be5761038d85838661038082608061516c565b926101c593929190615145565b83610140015182601b81106103a4576103a461517f565b60200201526103b460808361516c565b915060010161035c565b505f5b601c811015610412576103db85838661029d82602061516c565b83610160015182601c81106103f2576103f261517f565b602002018181525050602082610408919061516c565b91506001016103c1565b5061042484828561038082608061516c565b61018083015261043581608061516c565b905061044884828561038082608061516c565b6101a08301525092915050565b61045d614da7565b5f61046d888888888888876119b8565b908352905061047c8189611a39565b6020840191909152905061048f81611bd4565b604084019190915290506104a38882611c35565b606084019190915290506104b78882611d09565b608084019190915290506104cb8882611d94565b60a084019190915290506104df8882611f02565b60c084019190915290506104f38882611f74565b5060e0830152509695505050505050565b5f6001808261054d866105488961054361053e8a7f000000000000000000000000000000000000000000000000000000000000000061516c565b611fcb565b611fe9565b612002565b90505f61056b876105668a61054361053e8b600161516c565b61201b565b90505f5b7f00000000000000000000000000000000000000000000000000000000000000008110156105fd575f6105ba8b83815181106105ad576105ad61517f565b6020026020010151611fcb565b90506105ca866105438684612002565b95506105da856105438584612002565b94506105e6848b612002565b93506105f2838b61201b565b92505060010161056f565b50610608848461204a565b9998505050505050505050565b5f806001815b7f00000000000000000000000000000000000000000000000000000000000000008110156106ec575f86610100015182601c811061065b5761065b61517f565b602002015190505f61066d8286612058565b90508061068d576040516313f8744360e31b815260040160405180910390fd5b5f876060015184601c81106106a4576106a461517f565b602002015190506106b58382612075565b95506106dc886040015185601c81106106d0576106d061517f565b60200201518683612224565b945050505080600101905061061b565b505f610706866101200151865f015187602001518561224f565b90508281145b9695505050505050565b5f61075d6040518061012001604052805f81526020015f81526020015f81526020015f81526020015f81526020015f81526020015f81526020015f81526020015f81525090565b5f61076b8460a001516122bd565b9050610775614e2b565b61077d614e4a565b60e086015161079c9061079790855f5b602002015161201b565b612322565b60a085015260e08601516107bb9061079790855f5b6020020151612002565b60c080860182905260a0860151908801516107da926105489190611fe9565b845260a0860151610808906107ee90612322565b6105438660a001516105668a60c001518960c00151611fe9565b6020850152600182526101808801516108209061238b565b81526001606085018190525f60808601525b602381116108d857610853610849865f01516123d5565b8660600151611fe9565b8382604681106108655761086561517f565b602002015260808501516101208a01516108a8919061054890610889600186615193565b602881106108995761089961517f565b60200201518860600151611fe9565b8560800181815250506108c385606001518860800151611fe9565b60608601526108d1816151a6565b9050610832565b505f6108e66023600161516c565b90505b602881116109675761090161084986602001516123d5565b8382604681106109135761091361517f565b602002015260808501516101208a0151610937919061054890610889600186615193565b85608001818152505061095285606001518860800151611fe9565b6060860152610960816151a6565b90506108e9565b50606087015181600160200201526080870151816002602002015260a0870151816003602002015260c0870151816004602002015260e0870151816005602002015261010087015181600660200201526101208701518160076020020152610140870151816008602002015261016087015181600960200201526101a087015181600a602002015261018087015181600b60200201526101c087015181600c60200201526101e087015181600d602002015261020087015181600e602002015261022087015181600f60200201526102408701518160106020020152610260870151816011602002015261028087015181601260200201526102a087015181601360200201526102c087015181601460200201526102e08701518160156020020152610300870151816016602002015261032087015181601760200201526103408701518160186020020152610360870151816019602002015261038087015181601a60200201526103a087015181601b60200201528751610ae89061238b565b6103808201526020880151610afc9061238b565b6103a08201526040880151610b109061238b565b6103c08201526060880151610b249061238b565b6103e08201526080880151610b389061238b565b61040082015260e0880151610b4c9061238b565b61042082015260a0880151610b609061238b565b61044082015260c0880151610b749061238b565b6104608201528751610b859061238b565b6104808201526020880151610b999061238b565b6104a08201526040880151610bad9061238b565b6104c08201526060880151610bc19061238b565b6104e08201526080880151610bd59061238b565b610500820152606086015160808501516101608a01515f92610c1a929091877f00000000000000000000000000000000000000000000000000000000000000006123ed565b805160a0870151919250610c2d91611fe9565b604086018190526101608a01515160c0890151610c5d929161054891610c539190611fe9565b8860c00151611fe9565b604086015260c0870151610c7090612508565b60608601525f5b610c836001601c615193565b811015610e85575f610cb660017f0000000000000000000000000000000000000000000000000000000000000000615193565b821015905080610e2b57610ce96107978a60e0015188856001610cd9919061516c565b601c811061078d5761078d61517f565b60a088015260e0890151610d17906107979088610d0786600161516c565b601c81106107b1576107b161517f565b60c0880152606087015160a0880151610d309190611fe9565b60e0880152606087015160c08a0151610d4c91610c5391611fe9565b6101008801819052610d6e90610d61906123d5565b6105488960e001516123d5565b8583610d7c6028600161516c565b610d86919061516c565b60468110610d9657610d9661517f565b60200201526101008701516101608c01515f91610dd291610db886600161516c565b601c8110610dc857610dc861517f565b6020020151611fe9565b9050610dee816105488a60e0015187876001610db8919061516c565b9050610dfe886040015182612002565b6040890152606088015160c08b0151610e2491610e1a91611fe9565b8b60c00151611fe9565b6060890152505b610e4f8b610140015183601b8110610e4557610e4561517f565b602002015161238b565b8483610e5d6028600161516c565b610e67919061516c565b60468110610e7757610e7761517f565b602002015250600101610c77565b5060408051808201909152600181526002602082015282610ea8601c602861516c565b60468110610eb857610eb861517f565b6020020152604085015183610ecf601c602861516c565b60468110610edf57610edf61517f565b60200201526101a08901515f90610ef59061238b565b90508083610f05601c602861516c565b610f1090600161516c565b60468110610f2057610f2061517f565b602002015260e088015184610f37601c602861516c565b610f4290600161516c565b60468110610f5257610f5261517f565b60200201525f610f628486612513565b90505f610f6e836125e4565b9050610f7a828261265b565b9c9b505050505050505050505050565b610f92614836565b50604080516103c0810182526020808252600581830152600482840152825180840184527f26825fc4e1e8f51c1f49fbdfeb37216f296a32829914c017804a70f6963a363b81527f232218940016bc524f3e92525443df8c1eb1cb60ca931600cdb27bb2666d4f3e818301526060830152825180840184527f1d3423121ee2e604b635ca63c3a3256d03a9e05b5b85800a7c8ba04583c601fe81527f09590324a2dd0820c5d8598597008b61c9ffa9a7baa2a96daf6208982afab6b0818301526080830152825180840184527f297789614e19019e8b15dbb64252be1ed34827442f588baf402da208a30d166e81527f0abfea49906822a02a4d154477d1e2c899bb0e5a15cfbe66bfd427d9a13102268183015260a0830152825180840184527f0f1462a9d9817be9ac50231e6b93d4e6a90e573b8c503363b3ff6a110301684081527f1ab01a7c080ddb60d3ecfebd0ddefef94b5a0bc60b96573192e22d4d5319c5628183015260c0830152825180840184527ef9f92bf7b6bbe93a7181652e2409ef5abe8a13b099ba1956f463d4aa4943a781527f20100059e74f564da37327f77e7811d6c5310ef156f56d1d5712a1f323c38c748183015260e0830152825180840184527f09630f2557e3ea9d6bda7a050bd12762ecf0b5680c2dd27347bfb1ec325cbf9281527f2a79aaa306bafd4bfc09e9d4efd2db47ea12907e0a71ffa6c5db2c9d62e8bcc881830152610100830152825180840184527f304b1f3f6dbf38013e2451e1d3441b59536d30f6f10b2e3d2536666ce528322181527f276cd8fc9a873e4e071bcba6aff6d9ee4b9bacd691a89401857d9015136a7ef881830152610120830152825180840184527f267af96cbe63929046650d6bb7b4838abb8ab245fd1d364dc52c1fd755855a9e81527f029baff66b2a67a2d1f94f687e0cd20dcf82753965375bebad7d2481df92775e81830152610140830152825180840184527f0ca0bc4b1cd9eadbbf49eae56a99a4502ef13d965226a634d0981555e4a4da5681527f1a8a818e6c61f68cefa329f2fabc95c80ad56a538d852f75eda858ed1a616c7481830152610160830152825180840184527f1b8afad764d2cbe67c94249535bba7fcbd3f412f868487222aa54f3268ab64a281527f01b70a90a334c9bd5096aad8a0cc5d4c1d1cdb0fe415445bd0c84309caaf213e81830152610180830152825180840184527f09dfd2992ac1708f0dd1d28c2ad910d9cf21a1510948580f406bc9416113d62081527f205f76eebda12f565c98c775c4e4f3534b5dcc29e57eed899b1a1a880534dcb9818301526101a0830152825180840184527f13240f97a584b45184c8ec31319b5f6c04ee19ec1dfec87ed47d6d04aa158de281527f2dad22022121d689f57fb38ca21349cefb5d240b07ceb4be26ea429b6dc9d9e0818301526101c0830152825180840184527f2531a51ad54f124d58094b219818d2c9f189f2a91aeb664ce376d8b157ba98f881527f272da4396fb2a7ee0638b9140e523def1e6db71809307f677677e62b4163f556818301526101e0830152825180840184527f2e1eadeaf2808165aab81bc544e6c76a2375a7b9cddcd6f942ecdc4d01fb3e3881527f25f6bd5f0efa3474ff122ce1b95135f20b259a02a8ae0938b09cd67ad218be9e81830152610200830152825180840184527f11be825dd009c577b30eb09caeb7b563cc4c18bd6d77a2ea28124cf4728f529581527f2d2e9584c9ce86f997c78f55b28cae0ef08cb0a3f2a39ed4723ee07345c59dca81830152610220830152825180840184527f24f9787b2a331592fe6c2c79ecb3a3ad170ea10c33fd8adc13315b14a5216e2b81527f1acf898738482d22f1f34cef12b6399df0ca6298ad5e313078522496203d952c81830152610240830152825180840184527f0a6c1c9a67795d21903187ec45fe47ee8dac6ef384bc84714f8b20aef7e98fe481527f243d8526252509264799dbb2431695ed2925eeea79f4bd08a243d84149e56dcb81830152610260830152825180840184527f1c7e2c90f57cced9503369cb06c1afd18d4dcd2bbe5234ab3e7252027c4f172d81527f044c8935ade50a9fdc5cc97e86acd578f6bdf911c684f08bcd817294b7785ff681830152610280830152825180840184527ef579260a3a330ed56b9403ac65da93a415889cc494afc7637a07158067773d81527f11af9e9a4e22b0b7320bb7cb4eef31641c2a5935f8cccf72f6a33549a2555a5b818301526102a0830152825180840184527f1bab1631e33219972baeb32eea4b8a4578bf62d13ce955edd081a079705a21ca81527f20790919a1ec48028351a6135fb260a1e4ada2e1b8981c08417414792e757ed9818301526102c0830152825180840184527f155664cf16fbeef6f0f201a5c4c4ed7e0ec4ce7b65cd11a79194035e1ddc754981527f0ee4a90fae48884c66d3e6dcb7d645023844f58f82a5070945c37c6f163d9e7e818301526102e0830152825180840184527f2cdb329f4ac54a9b2a6bb49f35b27881fa6a6bb06a51e41a3addbc63b92a09f281527f09de6f6dce6674dfe0bb9a2d33543b23fa70fdaae3e508356ea287353ff5637781830152610300830152825180840184527f011733a47342be1b62b23b74d39fb6a27677b44284035c618a4cfa6c3591836781527f1b6124ff294c0bbe277c398d606ca94bf37bad466915d4b7b1fcfd2ff798705d81830152610320830152825180840184527f233834e0140e5ef7e22c8e9c71b60d1f9ad15ec60b1160db943c043c64e5635b81527f2a1e72915741ffdc0d9537378ca015e8943fd1ce6bb8eeb999eb04d9c51b1f4e81830152610340830152825180840184527f2ae1cb509ce1e6f5a706388238a045046c7d1b3a1c534d8d1cd1165deb1b3a3381527f1f0a2bdf6edefdfa216746a70719395d6c1f362f7bacfdb326d34457994ca6c181830152610360830152825180840184526001815260028183015261038083015282518084019093527f099678f90e37b0f5ba96ee12248f8e8d46182ed811408385d948ce6deff8136a83527f23423272eac33b7ae4cb6d2d00815d170aabd96cda20c143d937c5cf30abcf55908301526103a081019190915290565b61188f60405180608001604052805f81526020015f81526020015f81526020015f81525090565b608082146118da5760405162461bcd60e51b81526020600482015260136024820152721a5b9d985b1a5908189e5d195cc81c1bda5b9d606a1b60448201526064015b60405180910390fd5b6040805160808101909152806118f360205f8688615145565b6118fc916151be565b8152602090810190611912906040908688615145565b61191b916151be565b815260200161192e606060408688615145565b611937916151be565b815260200161194a608060608688615145565b611953916151be565b90529392505050565b5f602082146119a45760405162461bcd60e51b815260206004820152601460248201527334b73b30b634b210313cba32b99039b1b0b630b960611b60448201526064016118d1565b6119b161053e83856151be565b9392505050565b6119eb6040518060c001604052805f81526020015f81526020015f81526020015f81526020015f81526020015f81525090565b5f6119fa89898989898961285f565b604086019190915260208501919091529083529250611a19838a612c82565b608085019190915260608401919091529199919850909650505050505050565b611a41614e83565b5f611a4a614ea2565b84815260e0848101805151602080850191909152815181015160408086019190915282518101516060808701919091529251830151608080870191909152880180515160a0870152805183015160c08701528051820151948601949094529251909101516101008401529051611ae191611ac6918491016151db565b60405160208183030381529060405280519060200120611fcb565b9150611aec82612d4d565b6020850152835260015b611b0260026019615223565b811015611b8257611b1f83604051602001611ac691815260200190565b9250611b2a83612d4d565b85611b3684600261512e565b60198110611b4657611b4661517f565b6020020186611b5685600261512e565b611b6190600161516c565b60198110611b7157611b7161517f565b602002019190915252600101611af6565b50611b9982604051602001611ac691815260200190565b91505f611ba583612d4d565b85611bb260016019615193565b60198110611bc257611bc261517f565b60200201919091525050509250929050565b611bdc614ec1565b5f805b601c811015611c2e57611bfe84604051602001611ac691815260200190565b93505f611c0a85612d4d565b8584601c8110611c1c57611c1c61517f565b60200201919091525050600101611bdf565b5090929050565b611c3d614ec1565b5f805b601c811015611d0057611c51614ea2565b8481525f5b6008811015611cba5786610100015183601c8110611c7657611c7661517f565b60200201518160088110611c8c57611c8c61517f565b602002015182611c9d83600161516c565b60098110611cad57611cad61517f565b6020020152600101611c56565b50611ccf81604051602001611ac691906151db565b94505f611cdb86612d4d565b8685601c8110611ced57611ced61517f565b6020020191909152505050600101611c40565b50909391925050565b5f5f611d13614ee0565b8381525f5b6028811015611d66578561012001518160288110611d3857611d3861517f565b602002015182611d4983600161516c565b60298110611d5957611d5961517f565b6020020152600101611d18565b50611d7b81604051602001611ac69190615236565b91505f611d8783612d4d565b5096929550919350505050565b5f5f611d9e614eff565b8381525f5b611daf6001601c615193565b811015611eed5785610140015181601b8110611dcd57611dcd61517f565b60200201515182611ddf83600461512e565b611dea90600161516c565b606d8110611dfa57611dfa61517f565b602002015261014086015181601b8110611e1657611e1661517f565b60200201516020015182826004611e2d919061512e565b611e3890600261516c565b606d8110611e4857611e4861517f565b602002015261014086015181601b8110611e6457611e6461517f565b60200201516040015182611e7983600461512e565b611e8490600361516c565b606d8110611e9457611e9461517f565b602002015261014086015181601b8110611eb057611eb061517f565b60200201516060015182611ec583600461512e565b611ed090600461516c565b606d8110611ee057611ee061517f565b6020020152600101611da3565b50611d7b81604051602001611ac6919061526a565b5f5f611f0c614f1e565b8381525f5b601c811015611f5f5785610160015181601c8110611f3157611f3161517f565b602002015182611f4283600161516c565b601d8110611f5257611f5261517f565b6020020152600101611f11565b50611d7b81604051602001611ac6919061529e565b5f5f611f7e614f3d565b83815261018085018051516020808401919091528151810151604080850191909152825181015160608086019190915292519092015160808401529051611d7b91611ac6918491016152d2565b5f611fe35f5160206153f45f395f51905f5283615305565b92915050565b5f5f5160206153f45f395f51905f528284099392505050565b5f5f5160206153f45f395f51905f528284089392505050565b5f5f5160206153f45f395f51905f52612041835f5160206153f45f395f51905f52615193565b84089392505050565b5f6119b18361054384612322565b81515f90819061206a908560016107b1565b929092149392505050565b60408051610100810182527f30644e72e131a029b85045b68181585d2833e84879b9709143e1f593efffec5181526102d060208201527f30644e72e131a029b85045b68181585d2833e84879b9709143e1f593efffff1191810191909152609060608201527f30644e72e131a029b85045b68181585d2833e84879b9709143e1f593efffff71608082015260f060a08201527f30644e72e131a029b85045b68181585d2833e84879b9709143e1f593effffd3160c08201526113b060e08201525f906001825b600881101561215c5761215282610543878461201b565b915060010161213b565b50612165614f5b565b5f5b60088110156121c6575f8482600881106121835761218361517f565b6020020151905061219881610543898561201b565b90506121a381612322565b9050808383600881106121b8576121b861517f565b602002015250600101612167565b505f5b6008811015612219575f8782600881106121e5576121e561517f565b6020020151905061220281848460088110610dc857610dc861517f565b905061220e8682612002565b9550506001016121c9565b5061070c8483611fe9565b5f5f61223a60016105488561054389600161201b565b90506122468482611fe9565b95945050505050565b5f612258614f7a565b612263868285612d86565b61226f86868386612f32565b61227b8686838661311a565b612286868285613316565b6122918682856134fe565b61229d86868386613847565b6122a88682856140e1565b6122b38682856144ac565b61070c81856147a1565b6122c5614ec1565b81815260015b601c81101561231c576122fd826122e3600184615193565b601c81106122f3576122f361517f565b6020020151612508565b8282601c811061230f5761230f61517f565b60200201526001016122cb565b50919050565b5f5f8290505f604051602081526020808201526020604082015282606082015260025f5160206153f45f395f51905f520360808201525f5160206153f45f395f51905f5260a082015260205f60c08360055afa905080612380575f5ffd5b50505f519392505050565b604080518082019091525f8082526020820152604051806040016040528060888460200151901b845f015117815260200160888460600151901b8460400151178152509050919050565b5f611fe3825f5160206153f45f395f51905f52615193565b6123f5614ec1565b601c5b80156124fe575f8461240b600184615193565b601c811061241b5761241b61517f565b602002015190505f8861242f600185615193565b601c811061243f5761243f61517f565b602002015190505f61249a61245e612457858c611fe9565b6002611fe9565b6105668a61246d600189615193565b601c811061247d5761247d61517f565b60200201516105436124948861054360018a61201b565b8761201b565b90506124bb816105436107976124b58761054360018961201b565b86612002565b90508584116124ea5797508780856124d4600187615193565b601c81106124e4576124e461517f565b60200201525b505050806124f790615318565b90506123f8565b5095945050505050565b5f611fe38283611fe9565b604080518082019091525f80825260208201525f612533601c602861516c565b61253e90600261516c565b90506001604051855151604082015285516020015160608201528451608082015260408160606040840160075afa8216915060015b838110156125cc5760208102870160208202870181515160408501528151602001516060850152805160808501525050604080830160606040850160075afa8316925060408260808460065afa90921691600101612573565b50805184526020810151602085015250505092915050565b604080518082019091525f80825260208201527f30644e72e131a029b85045b68181585d97816a916871ca8d3c208c16d87cfd4782602001517f30644e72e131a029b85045b68181585d97816a916871ca8d3c208c16d87cfd476126489190615193565b6126529190615305565b60208301525090565b81516020808401518351848301516040805194850195909552938301919091527f198e9393920d483a7260bfb731fb5d25f1aa493335a9e71297e485b7aef312c260608301527f1800deef121f1e76426a00665e5c4479674322d4f75edadd46debd5cd992f6ed60808301527f090689d0585ff075ec9e99ad690c3395bc4b313370b38ef355acdadcd122975b60a08301527f12c85ea5db8c6deb4aab71808dcb408fe3d1e7690c43d37b4ce6cc0166fa7daa60c083015260e08201526101008101919091527f260e01b251f6f1c7e7ff4e580791dee8ea51d87a358e038b4efe30fac09383c16101208201527f0118c4d5b837bcc2bc89b5b398b5974e9f5944073b32078b7e231fec938883b06101408201527f04fc6369f7110fe3d25156c1bb9a72859cf2a04641f99ba4ee413c80da6a5fe46101608201527f22febda3c0c0632a56475b4214e5615e11e6dd3f96e6cea2854a87d4dacc5e556101808201525f9081906101a00160405160208183030381529060405290505f5f60086001600160a01b0316836040516127f1919061532d565b5f60405180830381855afa9150503d805f8114612829576040519150601f19603f3d011682016040523d82523d5f602084013e61282e565b606091505b50915091505f818060200190518101906128489190615343565b90508280156128545750805b979650505050505050565b5f8080808061286f87600361516c565b61287a90600c61516c565b67ffffffffffffffff81111561289257612892615362565b6040519080825280602002602001820160405280156128bb578160200160208202803683370190505b509050875f1b815f815181106128d3576128d361517f565b602002602001018181525050865f1b816001815181106128f5576128f561517f565b602002602001018181525050855f1b816002815181106129175761291761517f565b60209081029190910101525f5b87811015612976578a8a8281811061293e5761293e61517f565b9050602002013582826003612953919061516c565b815181106129635761296361517f565b6020908102919091010152600101612924565b508a51518161298689600361516c565b815181106129965761299661517f565b6020908102919091018101919091528b510151816129b589600361516c565b6129c090600161516c565b815181106129d0576129d061517f565b60209081029190910101528a5160400151816129ed89600361516c565b6129f890600261516c565b81518110612a0857612a0861517f565b60209081029190910101528a516060015181612a2589600361516c565b612a3090600361516c565b81518110612a4057612a4061517f565b6020908102919091018101919091528b01515181612a5f89600361516c565b612a6a90600461516c565b81518110612a7a57612a7a61517f565b6020908102919091018101919091528b810151015181612a9b89600361516c565b612aa690600561516c565b81518110612ab657612ab661517f565b6020908102919091018101919091528b01516040015181612ad889600361516c565b612ae390600661516c565b81518110612af357612af361517f565b6020908102919091018101919091528b01516060015181612b1589600361516c565b612b2090600761516c565b81518110612b3057612b3061517f565b602090810291909101015260408b01515181612b4d89600361516c565b612b5890600861516c565b81518110612b6857612b6861517f565b60209081029190910181019190915260408c0151015181612b8a89600361516c565b612b9590600961516c565b81518110612ba557612ba561517f565b60209081029190910101526040808c0151015181612bc489600361516c565b612bcf90600a61516c565b81518110612bdf57612bdf61517f565b602090810291909101015260408b01516060015181612bff89600361516c565b612c0a90600b61516c565b81518110612c1a57612c1a61517f565b602002602001018181525050612c3a81604051602001611ac69190615376565b9150612c4582612d4d565b6040805160208101869052929750909550612c609101611ac6565b91505f612c6c83612d4d565b50959c949b509499509097509195505050505050565b5f5f5f612c8d614f99565b85815260a0858101805151602080850191909152815181015160408086019190915282518101516060808701919091529251830151608086015260c0808a0180515195870195909552845183015190860152835181015160e086015292518201516101008501528188018051516101208601528051820151610140860152805184015161016086015251909101516101808401529051612d3391611ac6918491016153ab565b9150612d3e82612d4d565b90979096509194509092505050565b5f80826fffffffffffffffffffffffffffffffff8116608082901c612d7182611fcb565b9450612d7c81611fcb565b9350505050915091565b5f612d92846007614806565b90507f183227397098d014dc2822db40c0ac2e9419f4243cdcb848a1f0fac9f80000005f612df3612ded612dc785600361201b565b610543612de2612dd78b5f614806565b6105438c601c614806565b6105438b601b614806565b83611fe9565b9050612e74612e69612e50612e37612e1e85610548612e138d6002614806565b6105438e601b614806565b610548612e2c8c6003614806565b6105438d601c614806565b610548612e458b6004614806565b6105438c601d614806565b610548612e5e8a6005614806565b6105438b601e614806565b610548886001614806565b9050612e9381610548612e8886600161201b565b6105438a6026614806565b9050612e9f8184611fe9565b9050612eab8185611fe9565b8552505f9050612ee5612edb612ed0612ec588601b614806565b61054889601e614806565b610566886023614806565b610548875f614806565b9050612ef68161054384600261201b565b9050612f078161054384600161201b565b9050612f138183611fe9565b9050612f1f8184611fe9565b9050808460015b60200201525050505050565b5f5f5f612f68612f5e612f4689601b614806565b610548612f548b6011614806565b8a60600151611fe9565b8760800151612002565b9050612fa181610543612f97612f7f8b601c614806565b610548612f8d8d6012614806565b8c60600151611fe9565b8960800151612002565b9050612fc681610543612f97612fb88b601d614806565b610548612f8d8d6013614806565b9050612feb81610543612f97612fdd8b601e614806565b610548612f8d8d6014614806565b92505f905061300f612f5e61300189601b614806565b610548612f548b600d614806565b905061303481610543612f976130268b601c614806565b610548612f8d8d600e614806565b905061305981610543612f9761304b8b601d614806565b610548612f8d8d600f614806565b905061307e81610543612f976130708b601e614806565b610548612f8d8d6010614806565b91505f90506130a561309f61309489601f614806565b6105488a6019614806565b84611fe9565b90506130da816105666130d46130bc8b6027614806565b6105486130ca8d601a614806565b8c60a00151611fe9565b85611fe9565b90506130e68185611fe9565b6040860152505f6131096130d46130fe89601a614806565b6105438a6027614806565b606090950194909452505050505050565b5f5f613178613160613148613133612f978a6015614806565b6105486131418b6016614806565b8a51611fe9565b6105486131568a6017614806565b8960200151611fe9565b61054861316e896018614806565b8860400151611fe9565b91505f6131af61319661318c89601b614806565b8860800151612002565b6105486131a48a6003614806565b6105438b6023614806565b90505f6131d86131c089601c614806565b6105486131cd8b5f614806565b6105438c6024614806565b90505f6132026131e98a601d614806565b6105486131f78c6001614806565b6105438d6025614806565b905061324161322961321b85610548868d5f0151611fe9565b610548848c60200151611fe9565b6105486132378c6004614806565b8b60400151611fe9565b93505050505f61325561309f886020614806565b90505f61326661309f896020614806565b90505f61329e61328561327a8b6022614806565b6105488c6006614806565b6105666132938c6022614806565b6105438d6006614806565b90505f6132c26132bc6132b18789611fe9565b6105438d6020614806565b8361201b565b90506132ce8188611fe9565b90505f6132f66132e86132e28d6006614806565b87611fe9565b6105666132e28e6021614806565b60808a018390529050808960055b60200201525050505050505050505050565b5f6133225f600161201b565b90505f6133305f600261201b565b90505f61333e5f600361201b565b90505f61335a61334f88601c614806565b61056689601b614806565b90505f61337661336b89601d614806565b6105668a601c614806565b90505f6133926133878a601e614806565b6105668b601d614806565b90505f6133ae6133a38b6023614806565b6105668c601e614806565b9050836133bf81610543818b612002565b90506133cf81610543878a612002565b90506133df816105438789612002565b90506133f0816105438d6008614806565b90506133fc818a611fe9565b60c08b0152508261341181610543818b612002565b905061342181610543868a612002565b9050613431816105438689612002565b9050613442816105438d6008614806565b905061344e818a611fe9565b60e08b0152508161346381610543818b612002565b905061347381610543858a612002565b9050613483816105438589612002565b9050613494816105438d6008614806565b90506134a0818a611fe9565b6101008b015250806134b681610543818b612002565b90506134c681610543848a612002565b90506134d6816105438489612002565b90506134e7816105438d6008614806565b90506134f3818a611fe9565b9050808a6009613304565b6135376040518060e001604052805f81526020015f81526020015f81526020015f81526020015f81526020015f81526020015f81525090565b61354284601c614806565b815261354f84601d614806565b602082015261355f846023614806565b604082015261356f846026614806565b606082015261357f846025614806565b608082015261358f846024614806565b60a08201525f6135a0856002614806565b90505f6135ad865f614806565b90505f6135c18460400151855f015161201b565b90505f6135d685602001518660200151611fe9565b606086015190915086905f906135ec9080611fe9565b90505f61360a61360489602001518a60600151611fe9565b88611fe9565b90505f6136296136228a60a001518b60400151612002565b8a51612002565b90506136386132e28288611fe9565b905061365f61365961365361364d848761201b565b8861201b565b84612002565b83612002565b905061368761367c6136718387611fe9565b6105438f6009614806565b61054360018a61201b565b6101408c015250505050602085015160808601515f916136a691612002565b90505f6136c46136ba886060015188611fe9565b886020015161201b565b90505f6136e86136d48487611fe9565b6105486130d48b60a001518c5f015161201b565b90506137106137056136fa838c611fe9565b6105438e6009614806565b61054360018961201b565b6101608b0152505f9150613731905061372a836011612002565b8751611fe9565b90505f61373e8384612002565b905061374a8182612002565b90505f613758836009611fe9565b905061378161377b61309f6137748b60a001518c5f0151612002565b8b51612002565b8261201b565b60c089018190525f9061379c9061360490613671908d611fe9565b90506137af8b600a602002015182612002565b6101408c0152505086515f92506137d6915061372a906137cf9080612002565b8851612002565b90505f6138166137f1836105438a5f01518b60a0015161201b565b6020890151610566906138049080612002565b6105438b602001518c60800151612002565b905061383389600b6020020151610548613604613671858d611fe9565b89600b602002015250505050505050505050565b6138db604051806102c001604052805f81526020015f81526020015f81526020015f81526020015f81526020015f81526020015f81526020015f81526020015f81526020015f81526020015f81526020015f81526020015f81526020015f81526020015f81526020015f81526020015f81526020015f81526020015f81526020015f81526020015f81526020015f81525090565b6139106138f76138ec87601b614806565b610543886024614806565b610548613905886023614806565b61054389601c614806565b815261395561394a61393161392688601b614806565b61054389601e614806565b61054861393f89601c614806565b6105438a601d614806565b610566876025614806565b6040820181905261396a90600160441b611fe9565b6040820181905261398090610566876026614806565b6040820181905281516139939190612002565b604082018190526139a990610543876005614806565b604082015280516139be90600160441b611fe9565b8082526139de906105486139d3886023614806565b610543896024614806565b808252602082018190526139fa90610566612ec588601d614806565b60208201819052613a1090610543876004614806565b6020820152805160608201819052613a2d9061054887601e614806565b60608201819052613a5190610566613a46886025614806565b610548896026614806565b60608201819052613a6690610543875f614806565b8160600181815250505f613a8f613a8583602001518460400151612002565b8360600151612002565b9050613aa081610543886003614806565b9050613ab8613ab0876024614806565b614000611fe9565b60808301819052613ace90610548886023614806565b60808301819052613ae190614000611fe9565b60808301819052613af79061054888601d614806565b60808301819052613b0a90614000611fe9565b60808301819052613b209061054888601c614806565b60808301819052613b3390614000611fe9565b60808301819052613b499061054888601b614806565b60808301819052613b5f9061056688601e614806565b60808301819052613b7590610543886005614806565b6080830152613b88613ab0876025614806565b60a08301819052613b9e90610548886024614806565b60a08301819052613bb190614000611fe9565b60a08301819052613bc790610548886023614806565b60a08301819052613bda90614000611fe9565b60a08301819052613bf09061054888601e614806565b60a08301819052613c0390614000611fe9565b60a08301819052613c199061054888601d614806565b60a08301819052613c2f90610566886026614806565b60a08301819052613c4490610543885f614806565b60a0830181905260808301515f91613c5c9190612002565b9050613c6d81610543896004614806565b9050613c87613c7d88601d614806565b8760400151611fe9565b60c08401819052613ca0906105486131568a601c614806565b60c08401819052613cc090610548613cb98a601b614806565b8951611fe9565b60c08401819052613cd690610548896001614806565b60c0840181905260e08401819052613cf39061056689601e614806565b60c0840152613d0661334f886023614806565b610140840152613d25613d1a886026614806565b61056689601e614806565b610120840152610140830151613d4a90613d3f9080611fe9565b84610140015161201b565b610280840152610140830151613d8c90613d8190613d7a9061054360015f5160206153f45f395f51905f52615193565b6001612002565b846101200151611fe9565b6101608401819052613dc390613db590610543613daa8b6002614806565b6105438c6003614806565b6105436132e28a600a614806565b6101a0860152610280830151613de590613db590610543613daa8b6002614806565b6101c086015260c0830151613e0d90610543613e028a6002614806565b6105438b6003614806565b6101e08401525f613e2c613e2289601e614806565b8560e0015161201b565b9050613e3b61377b8283611fe9565b6101a0850152613e4f61316e896025614806565b6101008501819052613e7390610548613e698b6024614806565b8a60200151611fe9565b6101008501819052613e8d906105486131418b6023614806565b610100850152613eac613ea1896026614806565b85610100015161201b565b6101008501525f613ec16133878a6025614806565b9050613f15613eef612ded613d7a88610140015160015f5160206153f45f395f51905f526105439190615193565b610543613d7a88610100015160015f5160206153f45f395f51905f526105439190615193565b610180860152610100850151613f3a90613f2f9080611fe9565b86610100015161201b565b6101c0860152610180850151613f6d90613f59906105438c6007614806565b610543613f678c600a614806565b89611fe9565b6101e0880152610280850151613f8c90613f59906105438c6007614806565b6102008801526101c0850151613fab90613f59906105438c6007614806565b6102208801526101a0850151613fc6906105438b6007614806565b610200860152613fe5613fda8a6024614806565b6105668b601c614806565b610220860152610140850151614024906133879061401990613d7a9061054360015f5160206153f45f395f51905f52615193565b876102200151611fe9565b61024086018190526101e0860151610260870181905261405b91610548906105436140508e6005614806565b6105438f6002614806565b610260860181905260c086015161407e9190610548906105436140508e5f614806565b61026086018190526102008601516140969190612002565b61026086018190526140ac906136539086612002565b6102a086018190526140c690610543613f678c600a614806565b6102a0860181905287600c6020020152505050505050505050565b6141576040518061022001604052805f81526020015f81526020015f81526020015f81526020015f81526020015f81526020015f81526020015f81526020015f81526020015f81526020015f81526020015f81526020015f81526020015f81526020015f81526020015f81526020015f81525090565b61417061416585601b614806565b610548866002614806565b815261418b61418085601c614806565b610548866003614806565b60208201526141a961419e85601d614806565b610548866004614806565b60408201526141c76141bc85601e614806565b610548866005614806565b606082015280516141f9906141f2906141eb906141e49080611fe9565b8451611fe9565b8351611fe9565b8251611fe9565b608082015260208101516142379061422d90614223906142199080611fe9565b8460200151611fe9565b8360200151611fe9565b8260200151611fe9565b60a082015260408101516142759061426b90614261906142579080611fe9565b8460400151611fe9565b8360400151611fe9565b8260400151611fe9565b60c082015260608101516142b3906142a99061429f906142959080611fe9565b8460600151611fe9565b8360600151611fe9565b8260600151611fe9565b60e0820152608081015160a08201516142cc9190612002565b61010082015260c081015160e08201516142e69190612002565b61012082015260a081015161430a906142ff9080612002565b826101200151612002565b61014082015260e081015161432e906143239080612002565b826101000151612002565b6101608201526101208101516143449080612002565b6101e082018190526143659061435a9080612002565b826101600151612002565b6101e082015261010081015161437b9080612002565b6101a0820181905261439c906143919080612002565b826101400151612002565b6101a082018190526101608201516143b391612002565b6101808201526101408101516101e08201516143cf9190612002565b6101c08201526143e3612ded85600b614806565b610200820181905261024084015161018083015161440e9261054891610543906105668a6023614806565b836012602002015261443e8360136020020151610548836102000151610543856101a001516105668a6024614806565b836013602002015261446e8360146020020151610548836102000151610543856101c001516105668a6025614806565b836014602002015261449e8360156020020151610548836102000151610543856101e001516105668a6026614806565b836015602002015250505050565b6144fe6040518061016001604052805f81526020015f81526020015f81526020015f81526020015f81526020015f81526020015f81526020015f81526020015f81526020015f81526020015f81525090565b5f60405180608001604052806145337f10dc6e9c006ea38b04b1e03b4bd9490c0d03f98929ca1d7fb56821fd19d3b6e7611fcb565b81526020016145617f0c28145b6a44df3e0149b3d0a30b3bb599df9756d4dd9b84a86b38cfb45a740b611fcb565b815260200161458e7e544b8338791518b2c7645a50392798b21f75bb60e3596170067d00141cac15611fcb565b81526020016145bc7f222c01175718386f2e2e82eb122789e352e105a3b8fa852613bc534433ee428b611fcb565b905290506145d96145ce86601b614806565b610548876002614806565b610120830181905261460d9061460290613d81906145f79080611fe9565b856101200151611fe9565b836101200151611fe9565b825261461a85601c614806565b602083015261462a85601d614806565b604083015261463a85601e614806565b60608301528151602083015161466291613a85916146589190612002565b8460400151612002565b608083015261467561309f86600c614806565b61014083015281516146969061468c90835f610dc8565b8360800151612002565b60a08301526146c284601660200201516105488461014001516105438660a001516105668b6023614806565b6102c085015260208201516146dd9061468c90836001610dc8565b60c083015261470984601760200201516105488461014001516105438660c001516105668b6024614806565b6102e085015260408201516147249061468c90836002610dc8565b60e083015261475084601860200201516105488461014001516105438660e001516105668b6025614806565b610300850152606082015161476b9061468c90836003610dc8565b61010083015261479984601960200201516105488461014001516105438661010001516105668b6026614806565b846019612f26565b5f6147ad8184816107b1565b905060015b601a8110156147ff576147f5826105488684601a81106147d4576147d461517f565b6020020151866147e5600187615193565b60198110610dc857610dc861517f565b91506001016147b2565b5092915050565b5f8282602781111561481a5761481a6153df565b6028811061482a5761482a61517f565b60200201519392505050565b604051806103c001604052805f81526020015f81526020015f815260200161486f60405180604001604052805f81526020015f81525090565b815260200161488f60405180604001604052805f81526020015f81525090565b81526020016148af60405180604001604052805f81526020015f81525090565b81526020016148cf60405180604001604052805f81526020015f81525090565b81526020016148ef60405180604001604052805f81526020015f81525090565b815260200161490f60405180604001604052805f81526020015f81525090565b815260200161492f60405180604001604052805f81526020015f81525090565b815260200161494f60405180604001604052805f81526020015f81525090565b815260200161496f60405180604001604052805f81526020015f81525090565b815260200161498f60405180604001604052805f81526020015f81525090565b81526020016149af60405180604001604052805f81526020015f81525090565b81526020016149cf60405180604001604052805f81526020015f81525090565b81526020016149ef60405180604001604052805f81526020015f81525090565b8152602001614a0f60405180604001604052805f81526020015f81525090565b8152602001614a2f60405180604001604052805f81526020015f81525090565b8152602001614a4f60405180604001604052805f81526020015f81525090565b8152602001614a6f60405180604001604052805f81526020015f81525090565b8152602001614a8f60405180604001604052805f81526020015f81525090565b8152602001614aaf60405180604001604052805f81526020015f81525090565b8152602001614acf60405180604001604052805f81526020015f81525090565b8152602001614aef60405180604001604052805f81526020015f81525090565b8152602001614b0f60405180604001604052805f81526020015f81525090565b8152602001614b2f60405180604001604052805f81526020015f81525090565b8152602001614b4f60405180604001604052805f81526020015f81525090565b8152602001614b6f60405180604001604052805f81526020015f81525090565b8152602001614b8f60405180604001604052805f81526020015f81525090565b8152602001614baf60405180604001604052805f81526020015f81525090565b905290565b604051806101c00160405280614be760405180608001604052805f81526020015f81526020015f81526020015f81525090565b8152602001614c1360405180608001604052805f81526020015f81526020015f81526020015f81525090565b8152602001614c3f60405180608001604052805f81526020015f81526020015f81526020015f81525090565b8152602001614c6b60405180608001604052805f81526020015f81526020015f81526020015f81525090565b8152602001614c9760405180608001604052805f81526020015f81526020015f81526020015f81525090565b8152602001614cc360405180608001604052805f81526020015f81526020015f81526020015f81525090565b8152602001614cef60405180608001604052805f81526020015f81526020015f81526020015f81525090565b8152602001614d1b60405180608001604052805f81526020015f81526020015f81526020015f81525090565b8152602001614d28614fb8565b8152602001614d35614fe6565b8152602001614d42615005565b8152602001614d4f614ec1565b8152602001614d7b60405180608001604052805f81526020015f81526020015f81526020015f81525090565b8152602001614baf60405180608001604052805f81526020015f81526020015f81526020015f81525090565b604051806101000160405280614de66040518060c001604052805f81526020015f81526020015f81526020015f81526020015f81526020015f81525090565b8152602001614df3614e83565b8152602001614e00614ec1565b8152602001614e0d614ec1565b81526020015f81526020015f81526020015f81526020015f81525090565b604051806108c001604052806046906020820280368337509192915050565b604051806108c001604052806046905b604080518082019091525f8082526020820152815260200190600190039081614e5a5790505090565b6040518061032001604052806019906020820280368337509192915050565b6040518061012001604052806009906020820280368337509192915050565b604051806103800160405280601c906020820280368337509192915050565b6040518061052001604052806029906020820280368337509192915050565b60405180610da00160405280606d906020820280368337509192915050565b604051806103a00160405280601d906020820280368337509192915050565b6040518060a001604052806005906020820280368337509192915050565b6040518061010001604052806008906020820280368337509192915050565b604051806103400160405280601a906020820280368337509192915050565b604051806101a00160405280600d906020820280368337509192915050565b604051806103800160405280601c905b614fd0614f5b565b815260200190600190039081614fc85790505090565b6040518061050001604052806028906020820280368337509192915050565b604051806103600160405280601b905b61503c60405180608001604052805f81526020015f81526020015f81526020015f81525090565b8152602001906001900390816150155790505090565b5f5f5f5f60408587031215615065575f5ffd5b843567ffffffffffffffff81111561507b575f5ffd5b8501601f8101871361508b575f5ffd5b803567ffffffffffffffff8111156150a1575f5ffd5b8760208284010111156150b2575f5ffd5b60209182019550935085013567ffffffffffffffff8111156150d2575f5ffd5b8501601f810187136150e2575f5ffd5b803567ffffffffffffffff8111156150f8575f5ffd5b8760208260051b840101111561510c575f5ffd5b949793965060200194505050565b634e487b7160e01b5f52601160045260245ffd5b8082028115828204841417611fe357611fe361511a565b5f5f85851115615153575f5ffd5b8386111561515f575f5ffd5b5050820193919092039150565b80820180821115611fe357611fe361511a565b634e487b7160e01b5f52603260045260245ffd5b81810381811115611fe357611fe361511a565b5f600182016151b7576151b761511a565b5060010190565b80356020831015611fe3575f19602084900360031b1b1692915050565b5f8183825b60098110156151ff5781518352602092830192909101906001016151e0565b5050506101208201905092915050565b634e487b7160e01b5f52601260045260245ffd5b5f826152315761523161520f565b500490565b5f8183825b602981101561525a57815183526020928301929091019060010161523b565b5050506105208201905092915050565b5f8183825b606d81101561528e57815183526020928301929091019060010161526f565b505050610da08201905092915050565b5f8183825b601d8110156152c25781518352602092830192909101906001016152a3565b5050506103a08201905092915050565b5f8183825b60058110156152f65781518352602092830192909101906001016152d7565b50505060a08201905092915050565b5f826153135761531361520f565b500690565b5f816153265761532661511a565b505f190190565b5f82518060208501845e5f920191825250919050565b5f60208284031215615353575f5ffd5b815180151581146119b1575f5ffd5b634e487b7160e01b5f52604160045260245ffd5b81515f90829060208501835b828110156153a0578151845260209384019390910190600101615382565b509195945050505050565b5f8183825b600d8110156153cf5781518352602092830192909101906001016153b0565b5050506101a08201905092915050565b634e487b7160e01b5f52602160045260245ffdfe30644e72e131a029b85045b68181585d2833e84879b9709143e1f593f0000001a2646970667358221220287caf1354f8e0d59f48509ec9ddd770535eebde769ac1f6cafafcca9dcacd0064736f6c634300081c0033","linkReferences":{}},"methodIdentifiers":{"verify(bytes,bytes32[])":"ea50d0e4"},"id":19}