{"abi":[{"type":"constructor","inputs":[{"name":"_implBytecode","type":"bytes","internalType":"bytes"},{"name":"_safeProxyFactoryAddress","type":"address","internalType":"address"},{"name":"_safeFallbackHandlerAddress","type":"address","internalType":"address"}],"stateMutability":"nonpayable"},{"type":"function","name":"deploy","inputs":[{"name":"initCode","type":"bytes","internalType":"bytes"},{"name":"threshold","type":"uint256","internalType":"uint256"}],"outputs":[{"name":"deployedAddress","type":"address","internalType":"address"}],"stateMutability":"nonpayable"},{"type":"function","name":"implBytecode","inputs":[],"outputs":[{"name":"","type":"bytes","internalType":"bytes"}],"stateMutability":"view"},{"type":"function","name":"nonce","inputs":[],"outputs":[{"name":"","type":"uint256","internalType":"uint256"}],"stateMutability":"view"},{"type":"function","name":"nonceByDeployer","inputs":[{"name":"","type":"address","internalType":"address"}],"outputs":[{"name":"","type":"uint256","internalType":"uint256"}],"stateMutability":"view"},{"type":"function","name":"precomputeAddress","inputs":[{"name":"deployer","type":"address","internalType":"address"},{"name":"_nonce","type":"uint256","internalType":"uint256"}],"outputs":[{"name":"","type":"address","internalType":"address"}],"stateMutability":"view"},{"type":"function","name":"safeFallbackHandlerAddress","inputs":[],"outputs":[{"name":"","type":"address","internalType":"address"}],"stateMutability":"view"},{"type":"function","name":"safeProxyFactoryAddress","inputs":[],"outputs":[{"name":"","type":"address","internalType":"address"}],"stateMutability":"view"},{"type":"function","name":"setBytecode","inputs":[{"name":"_implBytecode","type":"bytes","internalType":"bytes"}],"outputs":[],"stateMutability":"nonpayable"},{"type":"event","name":"ContractDeployed","inputs":[{"name":"safeProxyAddress","type":"address","indexed":true,"internalType":"address"},{"name":"deployedAddress","type":"address","indexed":true,"internalType":"address"},{"name":"salt","type":"bytes32","indexed":true,"internalType":"bytes32"}],"anonymous":false},{"type":"event","name":"DeploymentFailed","inputs":[{"name":"salt","type":"bytes32","indexed":true,"internalType":"bytes32"},{"name":"reason","type":"string","indexed":false,"internalType":"string"}],"anonymous":false}],"bytecode":{"object":"0x608060405234801562000010575f80fd5b5060405162001d9e38038062001d9e8339818101604052810190620000369190620002b6565b825f908162000046919062000565565b508160025f6101000a81548173ffffffffffffffffffffffffffffffffffffffff021916908373ffffffffffffffffffffffffffffffffffffffff1602179055508060035f6101000a81548173ffffffffffffffffffffffffffffffffffffffff021916908373ffffffffffffffffffffffffffffffffffffffff16021790555050505062000649565b5f604051905090565b5f80fd5b5f80fd5b5f80fd5b5f80fd5b5f601f19601f8301169050919050565b7f4e487b71000000000000000000000000000000000000000000000000000000005f52604160045260245ffd5b6200013182620000e9565b810181811067ffffffffffffffff82111715620001535762000152620000f9565b5b80604052505050565b5f62000167620000d0565b905062000175828262000126565b919050565b5f67ffffffffffffffff821115620001975762000196620000f9565b5b620001a282620000e9565b9050602081019050919050565b5f5b83811015620001ce578082015181840152602081019050620001b1565b5f8484015250505050565b5f620001ef620001e9846200017a565b6200015c565b9050828152602081018484840111156200020e576200020d620000e5565b5b6200021b848285620001af565b509392505050565b5f82601f8301126200023a5762000239620000e1565b5b81516200024c848260208601620001d9565b91505092915050565b5f73ffffffffffffffffffffffffffffffffffffffff82169050919050565b5f620002808262000255565b9050919050565b620002928162000274565b81146200029d575f80fd5b50565b5f81519050620002b08162000287565b92915050565b5f805f60608486031215620002d057620002cf620000d9565b5b5f84015167ffffffffffffffff811115620002f057620002ef620000dd565b5b620002fe8682870162000223565b93505060206200031186828701620002a0565b92505060406200032486828701620002a0565b9150509250925092565b5f81519050919050565b7f4e487b71000000000000000000000000000000000000000000000000000000005f52602260045260245ffd5b5f60028204905060018216806200037d57607f821691505b60208210810362000393576200039262000338565b5b50919050565b5f819050815f5260205f209050919050565b5f6020601f8301049050919050565b5f82821b905092915050565b5f60088302620003f77fffffffffffffffffffffffffffffffffffffffffffffffffffffffffffffffff82620003ba565b620004038683620003ba565b95508019841693508086168417925050509392505050565b5f819050919050565b5f819050919050565b5f6200044d6200044762000441846200041b565b62000424565b6200041b565b9050919050565b5f819050919050565b62000468836200042d565b62000480620004778262000454565b848454620003c6565b825550505050565b5f90565b6200049662000488565b620004a38184846200045d565b505050565b5b81811015620004ca57620004be5f826200048c565b600181019050620004a9565b5050565b601f8211156200051957620004e38162000399565b620004ee84620003ab565b81016020851015620004fe578190505b620005166200050d85620003ab565b830182620004a8565b50505b505050565b5f82821c905092915050565b5f6200053b5f19846008026200051e565b1980831691505092915050565b5f6200055583836200052a565b9150826002028217905092915050565b62000570826200032e565b67ffffffffffffffff8111156200058c576200058b620000f9565b5b62000598825462000365565b620005a5828285620004ce565b5f60209050601f831160018114620005db575f8415620005c6578287015190505b620005d2858262000548565b86555062000641565b601f198416620005eb8662000399565b5f5b828110156200061457848901518255600182019150602085019450602081019050620005ed565b8683101562000634578489015162000630601f8916826200052a565b8355505b6001600288020188555050505b505050505050565b61174780620006575f395ff3fe608060405234801561000f575f80fd5b5060043610610086575f3560e01c80639503f143116100595780639503f143146101245780639c4ae2d014610142578063affed0e014610172578063b5b6fc241461019057610086565b80630c876fda1461008a578063133edc96146100ba5780631673d2f5146100ea578063214f233914610106575b5f80fd5b6100a4600480360381019061009f919061094e565b6101ae565b6040516100b19190610991565b60405180910390f35b6100d460048036038101906100cf91906109d4565b6101c3565b6040516100e19190610a21565b60405180910390f35b61010460048036038101906100ff9190610b76565b610246565b005b61010e610258565b60405161011b9190610a21565b60405180910390f35b61012c61027d565b6040516101399190610c37565b60405180910390f35b61015c60048036038101906101579190610c57565b610308565b6040516101699190610a21565b60405180910390f35b61017a6108b8565b6040516101879190610991565b60405180910390f35b6101986108be565b6040516101a59190610a21565b60405180910390f35b6004602052805f5260405f205f915090505481565b5f8083836040516020016101d8929190610d16565b6040516020818303038152906040528051906020012090505f60ff60f81b30835f6040516102069190610e3a565b60405180910390206040516020016102219493929190610ec4565b604051602081830303815290604052805190602001209050805f1c9250505092915050565b805f9081610254919061109c565b5050565b60025f9054906101000a900473ffffffffffffffffffffffffffffffffffffffff1681565b5f805461028990610d6e565b80601f01602080910402602001604051908101604052809291908181526020018280546102b590610d6e565b80156103005780601f106102d757610100808354040283529160200191610300565b820191905f5260205f20905b8154815290600101906020018083116102e357829003601f168201915b505050505081565b5f8060045f3373ffffffffffffffffffffffffffffffffffffffff1673ffffffffffffffffffffffffffffffffffffffff1681526020019081526020015f205490506001816103579190611198565b60045f3373ffffffffffffffffffffffffffffffffffffffff1673ffffffffffffffffffffffffffffffffffffffff1681526020019081526020015f20819055505f33826040516020016103ac929190610d16565b6040516020818303038152906040528051906020012090505f8080546103d190610d6e565b80601f01602080910402602001604051908101604052809291908181526020018280546103fd90610d6e565b80156104485780601f1061041f57610100808354040283529160200191610448565b820191905f5260205f20905b81548152906001019060200180831161042b57829003601f168201915b50505050509050818151602083015ff593505f73ffffffffffffffffffffffffffffffffffffffff168473ffffffffffffffffffffffffffffffffffffffff16036104c8576040517f08c379a00000000000000000000000000000000000000000000000000000000081526004016104bf9061124b565b60405180910390fd5b5f600167ffffffffffffffff8111156104e4576104e3610a52565b5b6040519080825280602002602001820160405280156105125781602001602082028036833780820191505090505b50905084815f8151811061052957610528611269565b5b602002602001019073ffffffffffffffffffffffffffffffffffffffff16908173ffffffffffffffffffffffffffffffffffffffff16815250505f8160015f60035f9054906101000a900473ffffffffffffffffffffffffffffffffffffffff165f805f6040516024016105a397969594939291906113ee565b6040516020818303038152906040527fb63e800d000000000000000000000000000000000000000000000000000000007bffffffffffffffffffffffffffffffffffffffffffffffffffffffff19166020820180517bffffffffffffffffffffffffffffffffffffffffffffffffffffffff838183161783525050505090505f60025f9054906101000a900473ffffffffffffffffffffffffffffffffffffffff1673ffffffffffffffffffffffffffffffffffffffff16631688f0b988845f6040518463ffffffff1660e01b8152600401610681939291906114a6565b6020604051808303815f875af115801561069d573d5f803e3d5ffd5b505050506040513d601f19601f820116820180604052508101906106c1919061152e565b90505f8190505f73ffffffffffffffffffffffffffffffffffffffff168173ffffffffffffffffffffffffffffffffffffffff1603610735576040517f08c379a000000000000000000000000000000000000000000000000000000000815260040161072c906115c9565b60405180910390fd5b5f8890508073ffffffffffffffffffffffffffffffffffffffff1663bd557acc838d8d6040518463ffffffff1660e01b8152600401610776939291906115e7565b5f604051808303815f87803b15801561078d575f80fd5b505af115801561079f573d5f803e3d5ffd5b505050508073ffffffffffffffffffffffffffffffffffffffff1663392e53cd6040518163ffffffff1660e01b8152600401602060405180830381865afa1580156107ec573d5f803e3d5ffd5b505050506040513d601f19601f820116820180604052508101906108109190611658565b61084f576040517f08c379a0000000000000000000000000000000000000000000000000000000008152600401610846906116f3565b60405180910390fd5b868973ffffffffffffffffffffffffffffffffffffffff168373ffffffffffffffffffffffffffffffffffffffff167f41a1a1e5033fb48fa68ae6842ead9050d540ddf76974d1cee54faf540d1f49e660405160405180910390a4505050505050505092915050565b60015481565b60035f9054906101000a900473ffffffffffffffffffffffffffffffffffffffff1681565b5f604051905090565b5f80fd5b5f80fd5b5f73ffffffffffffffffffffffffffffffffffffffff82169050919050565b5f61091d826108f4565b9050919050565b61092d81610913565b8114610937575f80fd5b50565b5f8135905061094881610924565b92915050565b5f60208284031215610963576109626108ec565b5b5f6109708482850161093a565b91505092915050565b5f819050919050565b61098b81610979565b82525050565b5f6020820190506109a45f830184610982565b92915050565b6109b381610979565b81146109bd575f80fd5b50565b5f813590506109ce816109aa565b92915050565b5f80604083850312156109ea576109e96108ec565b5b5f6109f78582860161093a565b9250506020610a08858286016109c0565b9150509250929050565b610a1b81610913565b82525050565b5f602082019050610a345f830184610a12565b92915050565b5f80fd5b5f80fd5b5f601f19601f8301169050919050565b7f4e487b71000000000000000000000000000000000000000000000000000000005f52604160045260245ffd5b610a8882610a42565b810181811067ffffffffffffffff82111715610aa757610aa6610a52565b5b80604052505050565b5f610ab96108e3565b9050610ac58282610a7f565b919050565b5f67ffffffffffffffff821115610ae457610ae3610a52565b5b610aed82610a42565b9050602081019050919050565b828183375f83830152505050565b5f610b1a610b1584610aca565b610ab0565b905082815260208101848484011115610b3657610b35610a3e565b5b610b41848285610afa565b509392505050565b5f82601f830112610b5d57610b5c610a3a565b5b8135610b6d848260208601610b08565b91505092915050565b5f60208284031215610b8b57610b8a6108ec565b5b5f82013567ffffffffffffffff811115610ba857610ba76108f0565b5b610bb484828501610b49565b91505092915050565b5f81519050919050565b5f82825260208201905092915050565b5f5b83811015610bf4578082015181840152602081019050610bd9565b5f8484015250505050565b5f610c0982610bbd565b610c138185610bc7565b9350610c23818560208601610bd7565b610c2c81610a42565b840191505092915050565b5f6020820190508181035f830152610c4f8184610bff565b905092915050565b5f8060408385031215610c6d57610c6c6108ec565b5b5f83013567ffffffffffffffff811115610c8a57610c896108f0565b5b610c9685828601610b49565b9250506020610ca7858286016109c0565b9150509250929050565b5f8160601b9050919050565b5f610cc782610cb1565b9050919050565b5f610cd882610cbd565b9050919050565b610cf0610ceb82610913565b610cce565b82525050565b5f819050919050565b610d10610d0b82610979565b610cf6565b82525050565b5f610d218285610cdf565b601482019150610d318284610cff565b6020820191508190509392505050565b7f4e487b71000000000000000000000000000000000000000000000000000000005f52602260045260245ffd5b5f6002820490506001821680610d8557607f821691505b602082108103610d9857610d97610d41565b5b50919050565b5f81905092915050565b5f819050815f5260205f209050919050565b5f8154610dc681610d6e565b610dd08186610d9e565b9450600182165f8114610dea5760018114610dff57610e31565b60ff1983168652811515820286019350610e31565b610e0885610da8565b5f5b83811015610e2957815481890152600182019150602081019050610e0a565b838801955050505b50505092915050565b5f610e458284610dba565b915081905092915050565b5f7fff0000000000000000000000000000000000000000000000000000000000000082169050919050565b5f819050919050565b610e95610e9082610e50565b610e7b565b82525050565b5f819050919050565b5f819050919050565b610ebe610eb982610e9b565b610ea4565b82525050565b5f610ecf8287610e84565b600182019150610edf8286610cdf565b601482019150610eef8285610ead565b602082019150610eff8284610ead565b60208201915081905095945050505050565b5f6020601f8301049050919050565b5f82821b905092915050565b5f60088302610f5b7fffffffffffffffffffffffffffffffffffffffffffffffffffffffffffffffff82610f20565b610f658683610f20565b95508019841693508086168417925050509392505050565b5f819050919050565b5f610fa0610f9b610f9684610979565b610f7d565b610979565b9050919050565b5f819050919050565b610fb983610f86565b610fcd610fc582610fa7565b848454610f2c565b825550505050565b5f90565b610fe1610fd5565b610fec818484610fb0565b505050565b5b8181101561100f576110045f82610fd9565b600181019050610ff2565b5050565b601f8211156110545761102581610da8565b61102e84610f11565b8101602085101561103d578190505b61105161104985610f11565b830182610ff1565b50505b505050565b5f82821c905092915050565b5f6110745f1984600802611059565b1980831691505092915050565b5f61108c8383611065565b9150826002028217905092915050565b6110a582610bbd565b67ffffffffffffffff8111156110be576110bd610a52565b5b6110c88254610d6e565b6110d3828285611013565b5f60209050601f831160018114611104575f84156110f2578287015190505b6110fc8582611081565b865550611163565b601f19841661111286610da8565b5f5b8281101561113957848901518255600182019150602085019450602081019050611114565b868310156111565784890151611152601f891682611065565b8355505b6001600288020188555050505b505050505050565b7f4e487b71000000000000000000000000000000000000000000000000000000005f52601160045260245ffd5b5f6111a282610979565b91506111ad83610979565b92508282019050808211156111c5576111c461116b565b5b92915050565b5f82825260208201905092915050565b7f5a6b4f776e6572466163746f72793a206465706c6f796d656e74206661696c655f8201527f6400000000000000000000000000000000000000000000000000000000000000602082015250565b5f6112356021836111cb565b9150611240826111db565b604082019050919050565b5f6020820190508181035f83015261126281611229565b9050919050565b7f4e487b71000000000000000000000000000000000000000000000000000000005f52603260045260245ffd5b5f81519050919050565b5f82825260208201905092915050565b5f819050602082019050919050565b6112c881610913565b82525050565b5f6112d983836112bf565b60208301905092915050565b5f602082019050919050565b5f6112fb82611296565b61130581856112a0565b9350611310836112b0565b805f5b8381101561134057815161132788826112ce565b9750611332836112e5565b925050600181019050611313565b5085935050505092915050565b5f819050919050565b5f60ff82169050919050565b5f61137c6113776113728461134d565b610f7d565b611356565b9050919050565b61138c81611362565b82525050565b50565b5f6113a05f836111cb565b91506113ab82611392565b5f82019050919050565b5f819050919050565b5f6113d86113d36113ce846113b5565b610f7d565b611356565b9050919050565b6113e8816113be565b82525050565b5f610100820190508181035f830152611407818a6112f1565b90506114166020830189611383565b6114236040830188610a12565b818103606083015261143481611395565b90506114436080830187610a12565b61145060a0830186610a12565b61145d60c08301856113df565b61146a60e0830184610a12565b98975050505050505050565b5f61149061148b611486846113b5565b610f7d565b610979565b9050919050565b6114a081611476565b82525050565b5f6060820190506114b95f830186610a12565b81810360208301526114cb8185610bff565b90506114da6040830184611497565b949350505050565b5f6114ec826108f4565b9050919050565b5f6114fd826114e2565b9050919050565b61150d816114f3565b8114611517575f80fd5b50565b5f8151905061152881611504565b92915050565b5f60208284031215611543576115426108ec565b5b5f6115508482850161151a565b91505092915050565b7f5a6b4f776e6572466163746f72793a20736166652070726f7879206465706c6f5f8201527f796d656e74206661696c65640000000000000000000000000000000000000000602082015250565b5f6115b3602c836111cb565b91506115be82611559565b604082019050919050565b5f6020820190508181035f8301526115e0816115a7565b9050919050565b5f6060820190506115fa5f830186610a12565b818103602083015261160c8185610bff565b905061161b6040830184610982565b949350505050565b5f8115159050919050565b61163781611623565b8114611641575f80fd5b50565b5f815190506116528161162e565b92915050565b5f6020828403121561166d5761166c6108ec565b5b5f61167a84828501611644565b91505092915050565b7f5a6b4f776e6572466163746f72793a207a6b206f776e657220696e697469616c5f8201527f697a6174696f6e206661696c6564000000000000000000000000000000000000602082015250565b5f6116dd602e836111cb565b91506116e882611683565b604082019050919050565b5f6020820190508181035f83015261170a816116d1565b905091905056fea26469706673582212205b91991220c0359e532256bad993a35279c759f592d9b00e8be1463b562f0d9f64736f6c63430008170033","linkReferences":{}},"methodIdentifiers":{"deploy(bytes,uint256)":"9c4ae2d0","implBytecode()":"9503f143","nonce()":"affed0e0","nonceByDeployer(address)":"0c876fda","precomputeAddress(address,uint256)":"133edc96","safeFallbackHandlerAddress()":"b5b6fc24","safeProxyFactoryAddress()":"214f2339","setBytecode(bytes)":"1673d2f5"},"id":25}