{"abi":[{"type":"constructor","inputs":[{"name":"_implBytecode","type":"bytes","internalType":"bytes"},{"name":"_safeProxyFactoryAddress","type":"address","internalType":"address"},{"name":"_safeFallbackHandlerAddress","type":"address","internalType":"address"}],"stateMutability":"nonpayable"},{"type":"function","name":"deploy","inputs":[{"name":"initCode","type":"bytes32","internalType":"bytes32"}],"outputs":[{"name":"deployedAddress","type":"address","internalType":"address"}],"stateMutability":"nonpayable"},{"type":"function","name":"implBytecode","inputs":[],"outputs":[{"name":"","type":"bytes","internalType":"bytes"}],"stateMutability":"view"},{"type":"function","name":"nonce","inputs":[],"outputs":[{"name":"","type":"uint256","internalType":"uint256"}],"stateMutability":"view"},{"type":"function","name":"safeFallbackHandlerAddress","inputs":[],"outputs":[{"name":"","type":"address","internalType":"address"}],"stateMutability":"view"},{"type":"function","name":"safeProxyFactoryAddress","inputs":[],"outputs":[{"name":"","type":"address","internalType":"address"}],"stateMutability":"view"},{"type":"function","name":"setBytecode","inputs":[{"name":"_implBytecode","type":"bytes","internalType":"bytes"}],"outputs":[],"stateMutability":"nonpayable"},{"type":"event","name":"ContractDeployed","inputs":[{"name":"deployedAddress","type":"address","indexed":true,"internalType":"address"},{"name":"salt","type":"bytes32","indexed":true,"internalType":"bytes32"}],"anonymous":false},{"type":"event","name":"DeploymentFailed","inputs":[{"name":"salt","type":"bytes32","indexed":true,"internalType":"bytes32"},{"name":"reason","type":"string","indexed":false,"internalType":"string"}],"anonymous":false}],"bytecode":{"object":"0x608060405234801562000010575f80fd5b50604051620016a2380380620016a28339818101604052810190620000369190620002b6565b825f908162000046919062000565565b508160025f6101000a81548173ffffffffffffffffffffffffffffffffffffffff021916908373ffffffffffffffffffffffffffffffffffffffff1602179055508060035f6101000a81548173ffffffffffffffffffffffffffffffffffffffff021916908373ffffffffffffffffffffffffffffffffffffffff16021790555050505062000649565b5f604051905090565b5f80fd5b5f80fd5b5f80fd5b5f80fd5b5f601f19601f8301169050919050565b7f4e487b71000000000000000000000000000000000000000000000000000000005f52604160045260245ffd5b6200013182620000e9565b810181811067ffffffffffffffff82111715620001535762000152620000f9565b5b80604052505050565b5f62000167620000d0565b905062000175828262000126565b919050565b5f67ffffffffffffffff821115620001975762000196620000f9565b5b620001a282620000e9565b9050602081019050919050565b5f5b83811015620001ce578082015181840152602081019050620001b1565b5f8484015250505050565b5f620001ef620001e9846200017a565b6200015c565b9050828152602081018484840111156200020e576200020d620000e5565b5b6200021b848285620001af565b509392505050565b5f82601f8301126200023a5762000239620000e1565b5b81516200024c848260208601620001d9565b91505092915050565b5f73ffffffffffffffffffffffffffffffffffffffff82169050919050565b5f620002808262000255565b9050919050565b620002928162000274565b81146200029d575f80fd5b50565b5f81519050620002b08162000287565b92915050565b5f805f60608486031215620002d057620002cf620000d9565b5b5f84015167ffffffffffffffff811115620002f057620002ef620000dd565b5b620002fe8682870162000223565b93505060206200031186828701620002a0565b92505060406200032486828701620002a0565b9150509250925092565b5f81519050919050565b7f4e487b71000000000000000000000000000000000000000000000000000000005f52602260045260245ffd5b5f60028204905060018216806200037d57607f821691505b60208210810362000393576200039262000338565b5b50919050565b5f819050815f5260205f209050919050565b5f6020601f8301049050919050565b5f82821b905092915050565b5f60088302620003f77fffffffffffffffffffffffffffffffffffffffffffffffffffffffffffffffff82620003ba565b620004038683620003ba565b95508019841693508086168417925050509392505050565b5f819050919050565b5f819050919050565b5f6200044d6200044762000441846200041b565b62000424565b6200041b565b9050919050565b5f819050919050565b62000468836200042d565b62000480620004778262000454565b848454620003c6565b825550505050565b5f90565b6200049662000488565b620004a38184846200045d565b505050565b5b81811015620004ca57620004be5f826200048c565b600181019050620004a9565b5050565b601f8211156200051957620004e38162000399565b620004ee84620003ab565b81016020851015620004fe578190505b620005166200050d85620003ab565b830182620004a8565b50505b505050565b5f82821c905092915050565b5f6200053b5f19846008026200051e565b1980831691505092915050565b5f6200055583836200052a565b9150826002028217905092915050565b62000570826200032e565b67ffffffffffffffff8111156200058c576200058b620000f9565b5b62000598825462000365565b620005a5828285620004ce565b5f60209050601f831160018114620005db575f8415620005c6578287015190505b620005d2858262000548565b86555062000641565b601f198416620005eb8662000399565b5f5b828110156200061457848901518255600182019150602085019450602081019050620005ed565b8683101562000634578489015162000630601f8916826200052a565b8355505b6001600288020188555050505b505050505050565b61104b80620006575f395ff3fe608060405234801561000f575f80fd5b5060043610610060575f3560e01c80631673d2f514610064578063214f2339146100805780632b85ba381461009e5780639503f143146100ce578063affed0e0146100ec578063b5b6fc241461010a575b5f80fd5b61007e600480360381019061007991906106f2565b610128565b005b61008861013a565b6040516100959190610778565b60405180910390f35b6100b860048036038101906100b391906107c4565b61015f565b6040516100c59190610778565b60405180910390f35b6100d66104ef565b6040516100e39190610869565b60405180910390f35b6100f461057a565b60405161010191906108a1565b60405180910390f35b610112610580565b60405161011f9190610778565b60405180910390f35b805f90816101369190610ab4565b5050565b60025f9054906101000a900473ffffffffffffffffffffffffffffffffffffffff1681565b5f60015f81548092919061017290610bb0565b91905055505f3360015460405160200161018d929190610c5c565b6040516020818303038152906040528051906020012090505f8080546101b2906108e7565b80601f01602080910402602001604051908101604052809291908181526020018280546101de906108e7565b80156102295780601f1061020057610100808354040283529160200191610229565b820191905f5260205f20905b81548152906001019060200180831161020c57829003601f168201915b50505050509050818151602083015ff592505f73ffffffffffffffffffffffffffffffffffffffff168373ffffffffffffffffffffffffffffffffffffffff16036102a9576040517f08c379a00000000000000000000000000000000000000000000000000000000081526004016102a090610d07565b60405180910390fd5b5f600167ffffffffffffffff8111156102c5576102c46105ce565b5b6040519080825280602002602001820160405280156102f35781602001602082028036833780820191505090505b50905083815f8151811061030a57610309610d25565b5b602002602001019073ffffffffffffffffffffffffffffffffffffffff16908173ffffffffffffffffffffffffffffffffffffffff16815250505f8160015f60035f9054906101000a900473ffffffffffffffffffffffffffffffffffffffff165f805f6040516024016103849796959493929190610eaa565b6040516020818303038152906040527fb63e800d000000000000000000000000000000000000000000000000000000007bffffffffffffffffffffffffffffffffffffffffffffffffffffffff19166020820180517bffffffffffffffffffffffffffffffffffffffffffffffffffffffff8381831617835250505050905060025f9054906101000a900473ffffffffffffffffffffffffffffffffffffffff1673ffffffffffffffffffffffffffffffffffffffff16631688f0b986835f6040518463ffffffff1660e01b815260040161046193929190610f62565b6020604051808303815f875af115801561047d573d5f803e3d5ffd5b505050506040513d601f19601f820116820180604052508101906104a19190610fea565b50838573ffffffffffffffffffffffffffffffffffffffff167fb085ff794f342ed78acc7791d067e28a931e614b52476c0305795e1ff0a154bc60405160405180910390a350505050919050565b5f80546104fb906108e7565b80601f0160208091040260200160405190810160405280929190818152602001828054610527906108e7565b80156105725780601f1061054957610100808354040283529160200191610572565b820191905f5260205f20905b81548152906001019060200180831161055557829003601f168201915b505050505081565b60015481565b60035f9054906101000a900473ffffffffffffffffffffffffffffffffffffffff1681565b5f604051905090565b5f80fd5b5f80fd5b5f80fd5b5f80fd5b5f601f19601f8301169050919050565b7f4e487b71000000000000000000000000000000000000000000000000000000005f52604160045260245ffd5b610604826105be565b810181811067ffffffffffffffff82111715610623576106226105ce565b5b80604052505050565b5f6106356105a5565b905061064182826105fb565b919050565b5f67ffffffffffffffff8211156106605761065f6105ce565b5b610669826105be565b9050602081019050919050565b828183375f83830152505050565b5f61069661069184610646565b61062c565b9050828152602081018484840111156106b2576106b16105ba565b5b6106bd848285610676565b509392505050565b5f82601f8301126106d9576106d86105b6565b5b81356106e9848260208601610684565b91505092915050565b5f60208284031215610707576107066105ae565b5b5f82013567ffffffffffffffff811115610724576107236105b2565b5b610730848285016106c5565b91505092915050565b5f73ffffffffffffffffffffffffffffffffffffffff82169050919050565b5f61076282610739565b9050919050565b61077281610758565b82525050565b5f60208201905061078b5f830184610769565b92915050565b5f819050919050565b6107a381610791565b81146107ad575f80fd5b50565b5f813590506107be8161079a565b92915050565b5f602082840312156107d9576107d86105ae565b5b5f6107e6848285016107b0565b91505092915050565b5f81519050919050565b5f82825260208201905092915050565b5f5b8381101561082657808201518184015260208101905061080b565b5f8484015250505050565b5f61083b826107ef565b61084581856107f9565b9350610855818560208601610809565b61085e816105be565b840191505092915050565b5f6020820190508181035f8301526108818184610831565b905092915050565b5f819050919050565b61089b81610889565b82525050565b5f6020820190506108b45f830184610892565b92915050565b7f4e487b71000000000000000000000000000000000000000000000000000000005f52602260045260245ffd5b5f60028204905060018216806108fe57607f821691505b602082108103610911576109106108ba565b5b50919050565b5f819050815f5260205f209050919050565b5f6020601f8301049050919050565b5f82821b905092915050565b5f600883026109737fffffffffffffffffffffffffffffffffffffffffffffffffffffffffffffffff82610938565b61097d8683610938565b95508019841693508086168417925050509392505050565b5f819050919050565b5f6109b86109b36109ae84610889565b610995565b610889565b9050919050565b5f819050919050565b6109d18361099e565b6109e56109dd826109bf565b848454610944565b825550505050565b5f90565b6109f96109ed565b610a048184846109c8565b505050565b5b81811015610a2757610a1c5f826109f1565b600181019050610a0a565b5050565b601f821115610a6c57610a3d81610917565b610a4684610929565b81016020851015610a55578190505b610a69610a6185610929565b830182610a09565b50505b505050565b5f82821c905092915050565b5f610a8c5f1984600802610a71565b1980831691505092915050565b5f610aa48383610a7d565b9150826002028217905092915050565b610abd826107ef565b67ffffffffffffffff811115610ad657610ad56105ce565b5b610ae082546108e7565b610aeb828285610a2b565b5f60209050601f831160018114610b1c575f8415610b0a578287015190505b610b148582610a99565b865550610b7b565b601f198416610b2a86610917565b5f5b82811015610b5157848901518255600182019150602085019450602081019050610b2c565b86831015610b6e5784890151610b6a601f891682610a7d565b8355505b6001600288020188555050505b505050505050565b7f4e487b71000000000000000000000000000000000000000000000000000000005f52601160045260245ffd5b5f610bba82610889565b91507fffffffffffffffffffffffffffffffffffffffffffffffffffffffffffffffff8203610bec57610beb610b83565b5b600182019050919050565b5f8160601b9050919050565b5f610c0d82610bf7565b9050919050565b5f610c1e82610c03565b9050919050565b610c36610c3182610758565b610c14565b82525050565b5f819050919050565b610c56610c5182610889565b610c3c565b82525050565b5f610c678285610c25565b601482019150610c778284610c45565b6020820191508190509392505050565b5f82825260208201905092915050565b7f5a6b4f776e6572466163746f72793a206465706c6f796d656e74206661696c655f8201527f6400000000000000000000000000000000000000000000000000000000000000602082015250565b5f610cf1602183610c87565b9150610cfc82610c97565b604082019050919050565b5f6020820190508181035f830152610d1e81610ce5565b9050919050565b7f4e487b71000000000000000000000000000000000000000000000000000000005f52603260045260245ffd5b5f81519050919050565b5f82825260208201905092915050565b5f819050602082019050919050565b610d8481610758565b82525050565b5f610d958383610d7b565b60208301905092915050565b5f602082019050919050565b5f610db782610d52565b610dc18185610d5c565b9350610dcc83610d6c565b805f5b83811015610dfc578151610de38882610d8a565b9750610dee83610da1565b925050600181019050610dcf565b5085935050505092915050565b5f819050919050565b5f60ff82169050919050565b5f610e38610e33610e2e84610e09565b610995565b610e12565b9050919050565b610e4881610e1e565b82525050565b50565b5f610e5c5f83610c87565b9150610e6782610e4e565b5f82019050919050565b5f819050919050565b5f610e94610e8f610e8a84610e71565b610995565b610e12565b9050919050565b610ea481610e7a565b82525050565b5f610100820190508181035f830152610ec3818a610dad565b9050610ed26020830189610e3f565b610edf6040830188610769565b8181036060830152610ef081610e51565b9050610eff6080830187610769565b610f0c60a0830186610769565b610f1960c0830185610e9b565b610f2660e0830184610769565b98975050505050505050565b5f610f4c610f47610f4284610e71565b610995565b610889565b9050919050565b610f5c81610f32565b82525050565b5f606082019050610f755f830186610769565b8181036020830152610f878185610831565b9050610f966040830184610f53565b949350505050565b5f610fa882610739565b9050919050565b5f610fb982610f9e565b9050919050565b610fc981610faf565b8114610fd3575f80fd5b50565b5f81519050610fe481610fc0565b92915050565b5f60208284031215610fff57610ffe6105ae565b5b5f61100c84828501610fd6565b9150509291505056fea2646970667358221220d2b69898a5bff7d9f98d88c7b15323e85e1c4b58b169a0f2737b48a0e6f86c6a64736f6c63430008170033","linkReferences":{}},"methodIdentifiers":{"deploy(bytes32)":"2b85ba38","implBytecode()":"9503f143","nonce()":"affed0e0","safeFallbackHandlerAddress()":"b5b6fc24","safeProxyFactoryAddress()":"214f2339","setBytecode(bytes)":"1673d2f5"},"id":25}