{"abi":[{"type":"constructor","inputs":[{"name":"_implBytecode","type":"bytes","internalType":"bytes"},{"name":"_safeProxyFactoryAddress","type":"address","internalType":"address"},{"name":"_safeFallbackHandlerAddress","type":"address","internalType":"address"}],"stateMutability":"nonpayable"},{"type":"function","name":"deploy","inputs":[{"name":"initCode","type":"bytes","internalType":"bytes"}],"outputs":[{"name":"deployedAddress","type":"address","internalType":"address"}],"stateMutability":"nonpayable"},{"type":"function","name":"implBytecode","inputs":[],"outputs":[{"name":"","type":"bytes","internalType":"bytes"}],"stateMutability":"view"},{"type":"function","name":"nonce","inputs":[],"outputs":[{"name":"","type":"uint256","internalType":"uint256"}],"stateMutability":"view"},{"type":"function","name":"safeFallbackHandlerAddress","inputs":[],"outputs":[{"name":"","type":"address","internalType":"address"}],"stateMutability":"view"},{"type":"function","name":"safeProxyFactoryAddress","inputs":[],"outputs":[{"name":"","type":"address","internalType":"address"}],"stateMutability":"view"},{"type":"function","name":"setBytecode","inputs":[{"name":"_implBytecode","type":"bytes","internalType":"bytes"}],"outputs":[],"stateMutability":"nonpayable"},{"type":"event","name":"ContractDeployed","inputs":[{"name":"safeProxyAddress","type":"address","indexed":true,"internalType":"address"},{"name":"deployedAddress","type":"address","indexed":true,"internalType":"address"},{"name":"salt","type":"bytes32","indexed":true,"internalType":"bytes32"}],"anonymous":false},{"type":"event","name":"DeploymentFailed","inputs":[{"name":"salt","type":"bytes32","indexed":true,"internalType":"bytes32"},{"name":"reason","type":"string","indexed":false,"internalType":"string"}],"anonymous":false}],"bytecode":{"object":"0x608060405234801562000010575f80fd5b50604051620016fd380380620016fd8339818101604052810190620000369190620002b6565b825f908162000046919062000565565b508160025f6101000a81548173ffffffffffffffffffffffffffffffffffffffff021916908373ffffffffffffffffffffffffffffffffffffffff1602179055508060035f6101000a81548173ffffffffffffffffffffffffffffffffffffffff021916908373ffffffffffffffffffffffffffffffffffffffff16021790555050505062000649565b5f604051905090565b5f80fd5b5f80fd5b5f80fd5b5f80fd5b5f601f19601f8301169050919050565b7f4e487b71000000000000000000000000000000000000000000000000000000005f52604160045260245ffd5b6200013182620000e9565b810181811067ffffffffffffffff82111715620001535762000152620000f9565b5b80604052505050565b5f62000167620000d0565b905062000175828262000126565b919050565b5f67ffffffffffffffff821115620001975762000196620000f9565b5b620001a282620000e9565b9050602081019050919050565b5f5b83811015620001ce578082015181840152602081019050620001b1565b5f8484015250505050565b5f620001ef620001e9846200017a565b6200015c565b9050828152602081018484840111156200020e576200020d620000e5565b5b6200021b848285620001af565b509392505050565b5f82601f8301126200023a5762000239620000e1565b5b81516200024c848260208601620001d9565b91505092915050565b5f73ffffffffffffffffffffffffffffffffffffffff82169050919050565b5f620002808262000255565b9050919050565b620002928162000274565b81146200029d575f80fd5b50565b5f81519050620002b08162000287565b92915050565b5f805f60608486031215620002d057620002cf620000d9565b5b5f84015167ffffffffffffffff811115620002f057620002ef620000dd565b5b620002fe8682870162000223565b93505060206200031186828701620002a0565b92505060406200032486828701620002a0565b9150509250925092565b5f81519050919050565b7f4e487b71000000000000000000000000000000000000000000000000000000005f52602260045260245ffd5b5f60028204905060018216806200037d57607f821691505b60208210810362000393576200039262000338565b5b50919050565b5f819050815f5260205f209050919050565b5f6020601f8301049050919050565b5f82821b905092915050565b5f60088302620003f77fffffffffffffffffffffffffffffffffffffffffffffffffffffffffffffffff82620003ba565b620004038683620003ba565b95508019841693508086168417925050509392505050565b5f819050919050565b5f819050919050565b5f6200044d6200044762000441846200041b565b62000424565b6200041b565b9050919050565b5f819050919050565b62000468836200042d565b62000480620004778262000454565b848454620003c6565b825550505050565b5f90565b6200049662000488565b620004a38184846200045d565b505050565b5b81811015620004ca57620004be5f826200048c565b600181019050620004a9565b5050565b601f8211156200051957620004e38162000399565b620004ee84620003ab565b81016020851015620004fe578190505b620005166200050d85620003ab565b830182620004a8565b50505b505050565b5f82821c905092915050565b5f6200053b5f19846008026200051e565b1980831691505092915050565b5f6200055583836200052a565b9150826002028217905092915050565b62000570826200032e565b67ffffffffffffffff8111156200058c576200058b620000f9565b5b62000598825462000365565b620005a5828285620004ce565b5f60209050601f831160018114620005db575f8415620005c6578287015190505b620005d2858262000548565b86555062000641565b601f198416620005eb8662000399565b5f5b828110156200061457848901518255600182019150602085019450602081019050620005ed565b8683101562000634578489015162000630601f8916826200052a565b8355505b6001600288020188555050505b505050505050565b6110a680620006575f395ff3fe608060405234801561000f575f80fd5b506004361061005f575f3560e01c8062774360146100635780631673d2f514610093578063214f2339146100af5780639503f143146100cd578063affed0e0146100eb578063b5b6fc2414610109575b5f80fd5b61007d6004803603810190610078919061077d565b610127565b60405161008a9190610803565b60405180910390f35b6100ad60048036038101906100a8919061077d565b610543565b005b6100b7610555565b6040516100c49190610803565b60405180910390f35b6100d561057a565b6040516100e29190610896565b60405180910390f35b6100f3610605565b60405161010091906108ce565b60405180910390f35b61011161060b565b60405161011e9190610803565b60405180910390f35b5f60015f81548092919061013a90610914565b91905055505f336001546040516020016101559291906109c0565b6040516020818303038152906040528051906020012090505f80805461017a90610a18565b80601f01602080910402602001604051908101604052809291908181526020018280546101a690610a18565b80156101f15780601f106101c8576101008083540402835291602001916101f1565b820191905f5260205f20905b8154815290600101906020018083116101d457829003601f168201915b50505050509050818151602083015ff592505f73ffffffffffffffffffffffffffffffffffffffff168373ffffffffffffffffffffffffffffffffffffffff1603610271576040517f08c379a000000000000000000000000000000000000000000000000000000000815260040161026890610ac8565b60405180910390fd5b5f600167ffffffffffffffff81111561028d5761028c610659565b5b6040519080825280602002602001820160405280156102bb5781602001602082028036833780820191505090505b50905083815f815181106102d2576102d1610ae6565b5b602002602001019073ffffffffffffffffffffffffffffffffffffffff16908173ffffffffffffffffffffffffffffffffffffffff16815250505f8160015f60035f9054906101000a900473ffffffffffffffffffffffffffffffffffffffff165f805f60405160240161034c9796959493929190610c74565b6040516020818303038152906040527fb63e800d000000000000000000000000000000000000000000000000000000007bffffffffffffffffffffffffffffffffffffffffffffffffffffffff19166020820180517bffffffffffffffffffffffffffffffffffffffffffffffffffffffff838183161783525050505090505f60025f9054906101000a900473ffffffffffffffffffffffffffffffffffffffff1673ffffffffffffffffffffffffffffffffffffffff16631688f0b987845f6040518463ffffffff1660e01b815260040161042a93929190610d2c565b6020604051808303815f875af1158015610446573d5f803e3d5ffd5b505050506040513d601f19601f8201168201806040525081019061046a9190610db4565b90505f8190505f8790508073ffffffffffffffffffffffffffffffffffffffff1663d1f57894838b6040518363ffffffff1660e01b81526004016104af929190610ddf565b5f604051808303815f87803b1580156104c6575f80fd5b505af11580156104d8573d5f803e3d5ffd5b50505050868873ffffffffffffffffffffffffffffffffffffffff168373ffffffffffffffffffffffffffffffffffffffff167f41a1a1e5033fb48fa68ae6842ead9050d540ddf76974d1cee54faf540d1f49e660405160405180910390a450505050505050919050565b805f90816105519190610fa1565b5050565b60025f9054906101000a900473ffffffffffffffffffffffffffffffffffffffff1681565b5f805461058690610a18565b80601f01602080910402602001604051908101604052809291908181526020018280546105b290610a18565b80156105fd5780601f106105d4576101008083540402835291602001916105fd565b820191905f5260205f20905b8154815290600101906020018083116105e057829003601f168201915b505050505081565b60015481565b60035f9054906101000a900473ffffffffffffffffffffffffffffffffffffffff1681565b5f604051905090565b5f80fd5b5f80fd5b5f80fd5b5f80fd5b5f601f19601f8301169050919050565b7f4e487b71000000000000000000000000000000000000000000000000000000005f52604160045260245ffd5b61068f82610649565b810181811067ffffffffffffffff821117156106ae576106ad610659565b5b80604052505050565b5f6106c0610630565b90506106cc8282610686565b919050565b5f67ffffffffffffffff8211156106eb576106ea610659565b5b6106f482610649565b9050602081019050919050565b828183375f83830152505050565b5f61072161071c846106d1565b6106b7565b90508281526020810184848401111561073d5761073c610645565b5b610748848285610701565b509392505050565b5f82601f83011261076457610763610641565b5b813561077484826020860161070f565b91505092915050565b5f6020828403121561079257610791610639565b5b5f82013567ffffffffffffffff8111156107af576107ae61063d565b5b6107bb84828501610750565b91505092915050565b5f73ffffffffffffffffffffffffffffffffffffffff82169050919050565b5f6107ed826107c4565b9050919050565b6107fd816107e3565b82525050565b5f6020820190506108165f8301846107f4565b92915050565b5f81519050919050565b5f82825260208201905092915050565b5f5b83811015610853578082015181840152602081019050610838565b5f8484015250505050565b5f6108688261081c565b6108728185610826565b9350610882818560208601610836565b61088b81610649565b840191505092915050565b5f6020820190508181035f8301526108ae818461085e565b905092915050565b5f819050919050565b6108c8816108b6565b82525050565b5f6020820190506108e15f8301846108bf565b92915050565b7f4e487b71000000000000000000000000000000000000000000000000000000005f52601160045260245ffd5b5f61091e826108b6565b91507fffffffffffffffffffffffffffffffffffffffffffffffffffffffffffffffff82036109505761094f6108e7565b5b600182019050919050565b5f8160601b9050919050565b5f6109718261095b565b9050919050565b5f61098282610967565b9050919050565b61099a610995826107e3565b610978565b82525050565b5f819050919050565b6109ba6109b5826108b6565b6109a0565b82525050565b5f6109cb8285610989565b6014820191506109db82846109a9565b6020820191508190509392505050565b7f4e487b71000000000000000000000000000000000000000000000000000000005f52602260045260245ffd5b5f6002820490506001821680610a2f57607f821691505b602082108103610a4257610a416109eb565b5b50919050565b5f82825260208201905092915050565b7f5a6b4f776e6572466163746f72793a206465706c6f796d656e74206661696c655f8201527f6400000000000000000000000000000000000000000000000000000000000000602082015250565b5f610ab2602183610a48565b9150610abd82610a58565b604082019050919050565b5f6020820190508181035f830152610adf81610aa6565b9050919050565b7f4e487b71000000000000000000000000000000000000000000000000000000005f52603260045260245ffd5b5f81519050919050565b5f82825260208201905092915050565b5f819050602082019050919050565b610b45816107e3565b82525050565b5f610b568383610b3c565b60208301905092915050565b5f602082019050919050565b5f610b7882610b13565b610b828185610b1d565b9350610b8d83610b2d565b805f5b83811015610bbd578151610ba48882610b4b565b9750610baf83610b62565b925050600181019050610b90565b5085935050505092915050565b5f819050919050565b5f60ff82169050919050565b5f819050919050565b5f610c02610bfd610bf884610bca565b610bdf565b610bd3565b9050919050565b610c1281610be8565b82525050565b50565b5f610c265f83610a48565b9150610c3182610c18565b5f82019050919050565b5f819050919050565b5f610c5e610c59610c5484610c3b565b610bdf565b610bd3565b9050919050565b610c6e81610c44565b82525050565b5f610100820190508181035f830152610c8d818a610b6e565b9050610c9c6020830189610c09565b610ca960408301886107f4565b8181036060830152610cba81610c1b565b9050610cc960808301876107f4565b610cd660a08301866107f4565b610ce360c0830185610c65565b610cf060e08301846107f4565b98975050505050505050565b5f610d16610d11610d0c84610c3b565b610bdf565b6108b6565b9050919050565b610d2681610cfc565b82525050565b5f606082019050610d3f5f8301866107f4565b8181036020830152610d51818561085e565b9050610d606040830184610d1d565b949350505050565b5f610d72826107c4565b9050919050565b5f610d8382610d68565b9050919050565b610d9381610d79565b8114610d9d575f80fd5b50565b5f81519050610dae81610d8a565b92915050565b5f60208284031215610dc957610dc8610639565b5b5f610dd684828501610da0565b91505092915050565b5f604082019050610df25f8301856107f4565b8181036020830152610e04818461085e565b90509392505050565b5f819050815f5260205f209050919050565b5f6020601f8301049050919050565b5f82821b905092915050565b5f60088302610e697fffffffffffffffffffffffffffffffffffffffffffffffffffffffffffffffff82610e2e565b610e738683610e2e565b95508019841693508086168417925050509392505050565b5f610ea5610ea0610e9b846108b6565b610bdf565b6108b6565b9050919050565b5f819050919050565b610ebe83610e8b565b610ed2610eca82610eac565b848454610e3a565b825550505050565b5f90565b610ee6610eda565b610ef1818484610eb5565b505050565b5b81811015610f1457610f095f82610ede565b600181019050610ef7565b5050565b601f821115610f5957610f2a81610e0d565b610f3384610e1f565b81016020851015610f42578190505b610f56610f4e85610e1f565b830182610ef6565b50505b505050565b5f82821c905092915050565b5f610f795f1984600802610f5e565b1980831691505092915050565b5f610f918383610f6a565b9150826002028217905092915050565b610faa8261081c565b67ffffffffffffffff811115610fc357610fc2610659565b5b610fcd8254610a18565b610fd8828285610f18565b5f60209050601f831160018114611009575f8415610ff7578287015190505b6110018582610f86565b865550611068565b601f19841661101786610e0d565b5f5b8281101561103e57848901518255600182019150602085019450602081019050611019565b8683101561105b5784890151611057601f891682610f6a565b8355505b6001600288020188555050505b50505050505056fea26469706673582212205b2100f434bd0c812f4bb9090599f0990a95ef46f461bdc1fcc95b4c1c75f02364736f6c63430008170033","linkReferences":{}},"methodIdentifiers":{"deploy(bytes)":"00774360","implBytecode()":"9503f143","nonce()":"affed0e0","safeFallbackHandlerAddress()":"b5b6fc24","safeProxyFactoryAddress()":"214f2339","setBytecode(bytes)":"1673d2f5"},"id":25}