{"abi":[{"type":"constructor","inputs":[{"name":"_implBytecode","type":"bytes","internalType":"bytes"},{"name":"_safeProxyFactoryAddress","type":"address","internalType":"address"},{"name":"_safeFallbackHandlerAddress","type":"address","internalType":"address"},{"name":"_verifier","type":"address","internalType":"address"}],"stateMutability":"nonpayable"},{"type":"function","name":"deploy","inputs":[{"name":"threshold","type":"uint256","internalType":"uint256"},{"name":"identifiers","type":"bytes32[]","internalType":"bytes32[]"}],"outputs":[{"name":"deployedAddress","type":"address","internalType":"address"}],"stateMutability":"nonpayable"},{"type":"function","name":"implBytecode","inputs":[],"outputs":[{"name":"","type":"bytes","internalType":"bytes"}],"stateMutability":"view"},{"type":"function","name":"nonce","inputs":[],"outputs":[{"name":"","type":"uint256","internalType":"uint256"}],"stateMutability":"view"},{"type":"function","name":"nonceByDeployer","inputs":[{"name":"","type":"address","internalType":"address"}],"outputs":[{"name":"","type":"uint256","internalType":"uint256"}],"stateMutability":"view"},{"type":"function","name":"precomputeAddress","inputs":[{"name":"deployer","type":"address","internalType":"address"},{"name":"_nonce","type":"uint256","internalType":"uint256"}],"outputs":[{"name":"","type":"address","internalType":"address"}],"stateMutability":"view"},{"type":"function","name":"recursiveVerifier","inputs":[],"outputs":[{"name":"","type":"address","internalType":"address"}],"stateMutability":"view"},{"type":"function","name":"safeFallbackHandlerAddress","inputs":[],"outputs":[{"name":"","type":"address","internalType":"address"}],"stateMutability":"view"},{"type":"function","name":"safeProxyFactoryAddress","inputs":[],"outputs":[{"name":"","type":"address","internalType":"address"}],"stateMutability":"view"},{"type":"function","name":"setBytecode","inputs":[{"name":"_implBytecode","type":"bytes","internalType":"bytes"}],"outputs":[],"stateMutability":"nonpayable"},{"type":"event","name":"ContractDeployed","inputs":[{"name":"safeProxyAddress","type":"address","indexed":true,"internalType":"address"},{"name":"deployedAddress","type":"address","indexed":true,"internalType":"address"},{"name":"salt","type":"bytes32","indexed":true,"internalType":"bytes32"}],"anonymous":false},{"type":"event","name":"DeploymentFailed","inputs":[{"name":"salt","type":"bytes32","indexed":true,"internalType":"bytes32"},{"name":"reason","type":"string","indexed":false,"internalType":"string"}],"anonymous":false}],"bytecode":{"object":"0x608060405234801561000f575f5ffd5b50604051610fe5380380610fe583398101604081905261002e916100ac565b5f6100398582610211565b50600280546001600160a01b039485166001600160a01b031991821617909155600380549385169382169390931790925560048054919093169116179055506102cb565b634e487b7160e01b5f52604160045260245ffd5b80516001600160a01b03811681146100a7575f5ffd5b919050565b5f5f5f5f608085870312156100bf575f5ffd5b84516001600160401b038111156100d4575f5ffd5b8501601f810187136100e4575f5ffd5b80516001600160401b038111156100fd576100fd61007d565b604051601f8201601f19908116603f011681016001600160401b038111828210171561012b5761012b61007d565b604052818152828201602001891015610142575f5ffd5b8160208401602083015e5f6020838301015280965050505061016660208601610091565b925061017460408601610091565b915061018260608601610091565b905092959194509250565b600181811c908216806101a157607f821691505b6020821081036101bf57634e487b7160e01b5f52602260045260245ffd5b50919050565b601f82111561020c57805f5260205f20601f840160051c810160208510156101ea5750805b601f840160051c820191505b81811015610209575f81556001016101f6565b50505b505050565b81516001600160401b0381111561022a5761022a61007d565b61023e81610238845461018d565b846101c5565b6020601f821160018114610270575f83156102595750848201515b5f19600385901b1c1916600184901b178455610209565b5f84815260208120601f198516915b8281101561029f578785015182556020948501946001909201910161027f565b50848210156102bc57868401515f19600387901b60f8161c191681555b50505050600190811b01905550565b610d0d806102d85f395ff3fe608060405234801561000f575f5ffd5b5060043610610090575f3560e01c8063214f233911610063578063214f2339146101195780639503f1431461012c578063ac8c293314610141578063affed0e014610154578063b5b6fc241461015d575f5ffd5b80630c876fda14610094578063133edc96146100c65780631673d2f5146100f15780631f768eb414610106575b5f5ffd5b6100b36100a236600461074f565b60056020525f908152604090205481565b6040519081526020015b60405180910390f35b6100d96100d4366004610771565b610170565b6040516001600160a01b0390911681526020016100bd565b6101046100ff3660046107e0565b61022d565b005b6100d9610114366004610874565b61023c565b6002546100d9906001600160a01b031681565b6101346106ad565b6040516100bd9190610956565b6004546100d9906001600160a01b031681565b6100b360015481565b6003546100d9906001600160a01b031681565b6040516001600160601b0319606084901b166020820152603481018290525f9081906054016040516020818303038152906040528051906020012090505f60ff60f81b30835f6040516101c391906109a0565b60405190819003812061020a949392916020016001600160f81b031994909416845260609290921b6001600160601b03191660018401526015830152603582015260550190565b60408051601f198184030181529190528051602090910120925050505b92915050565b5f6102388282610a5d565b5050565b335f90815260056020526040812054610256816001610b18565b335f8181526005602090815260408083209490945592519092610294929185910160609290921b6001600160601b0319168252601482015260340190565b6040516020818303038152906040528051906020012090505f5f80546102b990610968565b80601f01602080910402602001604051908101604052809291908181526020018280546102e590610968565b80156103305780601f1061030757610100808354040283529160200191610330565b820191905f5260205f20905b81548152906001019060200180831161031357829003601f168201915b50505050509050818151602083015ff593506001600160a01b0384166103a75760405162461bcd60e51b815260206004820152602160248201527f5a6b4f776e6572466163746f72793a206465706c6f796d656e74206661696c656044820152601960fa1b60648201526084015b60405180910390fd5b6040805160018082528183019092525f916020808301908036833701905050905084815f815181106103db576103db610b37565b6001600160a01b0392831660209182029290920101526003546040515f9261041492859260019286921690829081908190602401610b4b565b60408051601f198184030181529181526020820180516001600160e01b031663b63e800d60e01b1790526002549051631688f0b960e01b81529192505f916001600160a01b0390911690631688f0b990610476908a9086908690600401610c04565b6020604051808303815f875af1158015610492573d5f5f3e3d5ffd5b505050506040513d601f19601f820116820180604052508101906104b69190610c37565b9050806001600160a01b0381166105245760405162461bcd60e51b815260206004820152602c60248201527f5a6b4f776e6572466163746f72793a20736166652070726f7879206465706c6f60448201526b1e5b595b9d0819985a5b195960a21b606482015260840161039e565b5f889050806001600160a01b031663f6842ba4838d60045f9054906101000a90046001600160a01b03168e6040518563ffffffff1660e01b815260040161056e9493929190610c52565b5f604051808303815f87803b158015610585575f5ffd5b505af1158015610597573d5f5f3e3d5ffd5b50505050806001600160a01b031663392e53cd6040518163ffffffff1660e01b8152600401602060405180830381865afa1580156105d7573d5f5f3e3d5ffd5b505050506040513d601f19601f820116820180604052508101906105fb9190610cb8565b61065e5760405162461bcd60e51b815260206004820152602e60248201527f5a6b4f776e6572466163746f72793a207a6b206f776e657220696e697469616c60448201526d1a5e985d1a5bdb8819985a5b195960921b606482015260840161039e565b86896001600160a01b0316836001600160a01b03167f41a1a1e5033fb48fa68ae6842ead9050d540ddf76974d1cee54faf540d1f49e660405160405180910390a4505050505050505092915050565b5f80546106b990610968565b80601f01602080910402602001604051908101604052809291908181526020018280546106e590610968565b80156107305780601f1061070757610100808354040283529160200191610730565b820191905f5260205f20905b81548152906001019060200180831161071357829003601f168201915b505050505081565b6001600160a01b038116811461074c575f5ffd5b50565b5f6020828403121561075f575f5ffd5b813561076a81610738565b9392505050565b5f5f60408385031215610782575f5ffd5b823561078d81610738565b946020939093013593505050565b634e487b7160e01b5f52604160045260245ffd5b604051601f8201601f1916810167ffffffffffffffff811182821017156107d8576107d861079b565b604052919050565b5f602082840312156107f0575f5ffd5b813567ffffffffffffffff811115610806575f5ffd5b8201601f81018413610816575f5ffd5b803567ffffffffffffffff8111156108305761083061079b565b610843601f8201601f19166020016107af565b818152856020838501011115610857575f5ffd5b816020840160208301375f91810160200191909152949350505050565b5f5f60408385031215610885575f5ffd5b82359150602083013567ffffffffffffffff8111156108a2575f5ffd5b8301601f810185136108b2575f5ffd5b803567ffffffffffffffff8111156108cc576108cc61079b565b8060051b6108dc602082016107af565b918252602081840181019290810190888411156108f7575f5ffd5b6020850194505b838510156109195784358252602094850194909101906108fe565b80955050505050509250929050565b5f81518084528060208401602086015e5f602082860101526020601f19601f83011685010191505092915050565b602081525f61076a6020830184610928565b600181811c9082168061097c57607f821691505b60208210810361099a57634e487b7160e01b5f52602260045260245ffd5b50919050565b5f5f83546109ad81610968565b6001821680156109c457600181146109d957610a06565b60ff1983168652811515820286019350610a06565b865f5260205f205f5b838110156109fe578154888201526001909101906020016109e2565b505081860193505b509195945050505050565b601f821115610a5857805f5260205f20601f840160051c81016020851015610a365750805b601f840160051c820191505b81811015610a55575f8155600101610a42565b50505b505050565b815167ffffffffffffffff811115610a7757610a7761079b565b610a8b81610a858454610968565b84610a11565b6020601f821160018114610abd575f8315610aa65750848201515b5f19600385901b1c1916600184901b178455610a55565b5f84815260208120601f198516915b82811015610aec5787850151825560209485019460019092019101610acc565b5084821015610b0957868401515f19600387901b60f8161c191681555b50505050600190811b01905550565b8082018082111561022757634e487b7160e01b5f52601160045260245ffd5b634e487b7160e01b5f52603260045260245ffd5b61010080825288519082018190525f9060208a0190610120840190835b81811015610b8f5783516001600160a01b0316835260209384019390920191600101610b68565b505060ff8a1660208501526001600160a01b038916604085015283810360608501525f81526020810192505050610bd160808301876001600160a01b03169052565b6001600160a01b03851660a083015260ff841660c08301526001600160a01b03831660e083015298975050505050505050565b6001600160a01b03841681526060602082018190525f90610c2790830185610928565b9050826040830152949350505050565b5f60208284031215610c47575f5ffd5b815161076a81610738565b6001600160a01b0385811682526020808301869052908416604083015260806060830181905283519083018190525f9184019060a0840190835b81811015610caa578351835260209384019390920191600101610c8c565b509098975050505050505050565b5f60208284031215610cc8575f5ffd5b8151801515811461076a575f5ffdfea264697066735822122064fcb27252ff964c72342bdb8a82181bbd9ca527d3305ed2e2b14d582a5fa9fb64736f6c634300081c0033","linkReferences":{}},"methodIdentifiers":{"deploy(uint256,bytes32[])":"1f768eb4","implBytecode()":"9503f143","nonce()":"affed0e0","nonceByDeployer(address)":"0c876fda","precomputeAddress(address,uint256)":"133edc96","recursiveVerifier()":"ac8c2933","safeFallbackHandlerAddress()":"b5b6fc24","safeProxyFactoryAddress()":"214f2339","setBytecode(bytes)":"1673d2f5"},"id":21}