{"abi":[{"type":"constructor","inputs":[{"name":"_implBytecode","type":"bytes","internalType":"bytes"},{"name":"_safeProxyFactoryAddress","type":"address","internalType":"address"},{"name":"_safeFallbackHandlerAddress","type":"address","internalType":"address"},{"name":"_verifier","type":"address","internalType":"address"}],"stateMutability":"nonpayable"},{"type":"function","name":"deploy","inputs":[{"name":"threshold","type":"uint256","internalType":"uint256"},{"name":"identifiers","type":"bytes32[]","internalType":"bytes32[]"}],"outputs":[{"name":"deployedAddress","type":"address","internalType":"address"}],"stateMutability":"nonpayable"},{"type":"function","name":"implBytecode","inputs":[],"outputs":[{"name":"","type":"bytes","internalType":"bytes"}],"stateMutability":"view"},{"type":"function","name":"nonce","inputs":[],"outputs":[{"name":"","type":"uint256","internalType":"uint256"}],"stateMutability":"view"},{"type":"function","name":"nonceByDeployer","inputs":[{"name":"","type":"address","internalType":"address"}],"outputs":[{"name":"","type":"uint256","internalType":"uint256"}],"stateMutability":"view"},{"type":"function","name":"precomputeAddress","inputs":[{"name":"deployer","type":"address","internalType":"address"},{"name":"_nonce","type":"uint256","internalType":"uint256"}],"outputs":[{"name":"","type":"address","internalType":"address"}],"stateMutability":"view"},{"type":"function","name":"recursiveVerifier","inputs":[],"outputs":[{"name":"","type":"address","internalType":"address"}],"stateMutability":"view"},{"type":"function","name":"safeFallbackHandlerAddress","inputs":[],"outputs":[{"name":"","type":"address","internalType":"address"}],"stateMutability":"view"},{"type":"function","name":"safeProxyFactoryAddress","inputs":[],"outputs":[{"name":"","type":"address","internalType":"address"}],"stateMutability":"view"},{"type":"function","name":"setBytecode","inputs":[{"name":"_implBytecode","type":"bytes","internalType":"bytes"}],"outputs":[],"stateMutability":"nonpayable"},{"type":"event","name":"ContractDeployed","inputs":[{"name":"safeProxyAddress","type":"address","indexed":true,"internalType":"address"},{"name":"deployedAddress","type":"address","indexed":true,"internalType":"address"},{"name":"salt","type":"bytes32","indexed":true,"internalType":"bytes32"}],"anonymous":false},{"type":"event","name":"DeploymentFailed","inputs":[{"name":"salt","type":"bytes32","indexed":true,"internalType":"bytes32"},{"name":"reason","type":"string","indexed":false,"internalType":"string"}],"anonymous":false}],"bytecode":{"object":"0x608060405234801561000f575f5ffd5b50604051611f70380380611f70833981810160405281019061003191906102b0565b835f908161003f9190610540565b508260025f6101000a81548173ffffffffffffffffffffffffffffffffffffffff021916908373ffffffffffffffffffffffffffffffffffffffff1602179055508160035f6101000a81548173ffffffffffffffffffffffffffffffffffffffff021916908373ffffffffffffffffffffffffffffffffffffffff1602179055508060045f6101000a81548173ffffffffffffffffffffffffffffffffffffffff021916908373ffffffffffffffffffffffffffffffffffffffff1602179055505050505061060f565b5f604051905090565b5f5ffd5b5f5ffd5b5f5ffd5b5f5ffd5b5f601f19601f8301169050919050565b7f4e487b71000000000000000000000000000000000000000000000000000000005f52604160045260245ffd5b61016882610122565b810181811067ffffffffffffffff8211171561018757610186610132565b5b80604052505050565b5f610199610109565b90506101a5828261015f565b919050565b5f67ffffffffffffffff8211156101c4576101c3610132565b5b6101cd82610122565b9050602081019050919050565b8281835e5f83830152505050565b5f6101fa6101f5846101aa565b610190565b9050828152602081018484840111156102165761021561011e565b5b6102218482856101da565b509392505050565b5f82601f83011261023d5761023c61011a565b5b815161024d8482602086016101e8565b91505092915050565b5f73ffffffffffffffffffffffffffffffffffffffff82169050919050565b5f61027f82610256565b9050919050565b61028f81610275565b8114610299575f5ffd5b50565b5f815190506102aa81610286565b92915050565b5f5f5f5f608085870312156102c8576102c7610112565b5b5f85015167ffffffffffffffff8111156102e5576102e4610116565b5b6102f187828801610229565b94505060206103028782880161029c565b93505060406103138782880161029c565b92505060606103248782880161029c565b91505092959194509250565b5f81519050919050565b7f4e487b71000000000000000000000000000000000000000000000000000000005f52602260045260245ffd5b5f600282049050600182168061037e57607f821691505b6020821081036103915761039061033a565b5b50919050565b5f819050815f5260205f209050919050565b5f6020601f8301049050919050565b5f82821b905092915050565b5f600883026103f37fffffffffffffffffffffffffffffffffffffffffffffffffffffffffffffffff826103b8565b6103fd86836103b8565b95508019841693508086168417925050509392505050565b5f819050919050565b5f819050919050565b5f61044161043c61043784610415565b61041e565b610415565b9050919050565b5f819050919050565b61045a83610427565b61046e61046682610448565b8484546103c4565b825550505050565b5f5f905090565b610485610476565b610490818484610451565b505050565b5b818110156104b3576104a85f8261047d565b600181019050610496565b5050565b601f8211156104f8576104c981610397565b6104d2846103a9565b810160208510156104e1578190505b6104f56104ed856103a9565b830182610495565b50505b505050565b5f82821c905092915050565b5f6105185f19846008026104fd565b1980831691505092915050565b5f6105308383610509565b9150826002028217905092915050565b61054982610330565b67ffffffffffffffff81111561056257610561610132565b5b61056c8254610367565b6105778282856104b7565b5f60209050601f8311600181146105a8575f8415610596578287015190505b6105a08582610525565b865550610607565b601f1984166105b686610397565b5f5b828110156105dd578489015182556001820191506020850194506020810190506105b8565b868310156105fa57848901516105f6601f891682610509565b8355505b6001600288020188555050505b505050505050565b6119548061061c5f395ff3fe608060405234801561000f575f5ffd5b5060043610610091575f3560e01c8063214f233911610064578063214f2339146101415780639503f1431461015f578063ac8c29331461017d578063affed0e01461019b578063b5b6fc24146101b957610091565b80630c876fda14610095578063133edc96146100c55780631673d2f5146100f55780631f768eb414610111575b5f5ffd5b6100af60048036038101906100aa91906109bf565b6101d7565b6040516100bc9190610a02565b60405180910390f35b6100df60048036038101906100da9190610a45565b6101ec565b6040516100ec9190610a92565b60405180910390f35b61010f600480360381019061010a9190610be7565b61026f565b005b61012b60048036038101906101269190610d25565b610281565b6040516101389190610a92565b60405180910390f35b610149610854565b6040516101569190610a92565b60405180910390f35b610167610879565b6040516101749190610ddf565b60405180910390f35b610185610904565b6040516101929190610a92565b60405180910390f35b6101a3610929565b6040516101b09190610a02565b60405180910390f35b6101c161092f565b6040516101ce9190610a92565b60405180910390f35b6005602052805f5260405f205f915090505481565b5f5f8383604051602001610201929190610e64565b6040516020818303038152906040528051906020012090505f60ff60f81b30835f60405161022f9190610f88565b604051809103902060405160200161024a9493929190611009565b604051602081830303815290604052805190602001209050805f1c9250505092915050565b805f908161027d91906111e4565b5050565b5f5f60055f3373ffffffffffffffffffffffffffffffffffffffff1673ffffffffffffffffffffffffffffffffffffffff1681526020019081526020015f205490506001816102d091906112e0565b60055f3373ffffffffffffffffffffffffffffffffffffffff1673ffffffffffffffffffffffffffffffffffffffff1681526020019081526020015f20819055505f3382604051602001610325929190610e64565b6040516020818303038152906040528051906020012090505f5f805461034a90610ebc565b80601f016020809104026020016040519081016040528092919081815260200182805461037690610ebc565b80156103c15780601f10610398576101008083540402835291602001916103c1565b820191905f5260205f20905b8154815290600101906020018083116103a457829003601f168201915b50505050509050818151602083015ff593505f73ffffffffffffffffffffffffffffffffffffffff168473ffffffffffffffffffffffffffffffffffffffff1603610441576040517f08c379a000000000000000000000000000000000000000000000000000000000815260040161043890611393565b60405180910390fd5b5f600167ffffffffffffffff81111561045d5761045c610ac3565b5b60405190808252806020026020018201604052801561048b5781602001602082028036833780820191505090505b50905084815f815181106104a2576104a16113b1565b5b602002602001019073ffffffffffffffffffffffffffffffffffffffff16908173ffffffffffffffffffffffffffffffffffffffff16815250505f8160015f60035f9054906101000a900473ffffffffffffffffffffffffffffffffffffffff165f5f5f60405160240161051c9796959493929190611536565b6040516020818303038152906040527fb63e800d000000000000000000000000000000000000000000000000000000007bffffffffffffffffffffffffffffffffffffffffffffffffffffffff19166020820180517bffffffffffffffffffffffffffffffffffffffffffffffffffffffff838183161783525050505090505f60025f9054906101000a900473ffffffffffffffffffffffffffffffffffffffff1673ffffffffffffffffffffffffffffffffffffffff16631688f0b988845f6040518463ffffffff1660e01b81526004016105fa939291906115ee565b6020604051808303815f875af1158015610616573d5f5f3e3d5ffd5b505050506040513d601f19601f8201168201806040525081019061063a9190611676565b90505f8190505f73ffffffffffffffffffffffffffffffffffffffff168173ffffffffffffffffffffffffffffffffffffffff16036106ae576040517f08c379a00000000000000000000000000000000000000000000000000000000081526004016106a590611711565b60405180910390fd5b5f8890508073ffffffffffffffffffffffffffffffffffffffff1663f6842ba4838d60045f9054906101000a900473ffffffffffffffffffffffffffffffffffffffff168e6040518563ffffffff1660e01b815260040161071294939291906117e6565b5f604051808303815f87803b158015610729575f5ffd5b505af115801561073b573d5f5f3e3d5ffd5b505050508073ffffffffffffffffffffffffffffffffffffffff1663392e53cd6040518163ffffffff1660e01b8152600401602060405180830381865afa158015610788573d5f5f3e3d5ffd5b505050506040513d601f19601f820116820180604052508101906107ac9190611865565b6107eb576040517f08c379a00000000000000000000000000000000000000000000000000000000081526004016107e290611900565b60405180910390fd5b868973ffffffffffffffffffffffffffffffffffffffff168373ffffffffffffffffffffffffffffffffffffffff167f41a1a1e5033fb48fa68ae6842ead9050d540ddf76974d1cee54faf540d1f49e660405160405180910390a4505050505050505092915050565b60025f9054906101000a900473ffffffffffffffffffffffffffffffffffffffff1681565b5f805461088590610ebc565b80601f01602080910402602001604051908101604052809291908181526020018280546108b190610ebc565b80156108fc5780601f106108d3576101008083540402835291602001916108fc565b820191905f5260205f20905b8154815290600101906020018083116108df57829003601f168201915b505050505081565b60045f9054906101000a900473ffffffffffffffffffffffffffffffffffffffff1681565b60015481565b60035f9054906101000a900473ffffffffffffffffffffffffffffffffffffffff1681565b5f604051905090565b5f5ffd5b5f5ffd5b5f73ffffffffffffffffffffffffffffffffffffffff82169050919050565b5f61098e82610965565b9050919050565b61099e81610984565b81146109a8575f5ffd5b50565b5f813590506109b981610995565b92915050565b5f602082840312156109d4576109d361095d565b5b5f6109e1848285016109ab565b91505092915050565b5f819050919050565b6109fc816109ea565b82525050565b5f602082019050610a155f8301846109f3565b92915050565b610a24816109ea565b8114610a2e575f5ffd5b50565b5f81359050610a3f81610a1b565b92915050565b5f5f60408385031215610a5b57610a5a61095d565b5b5f610a68858286016109ab565b9250506020610a7985828601610a31565b9150509250929050565b610a8c81610984565b82525050565b5f602082019050610aa55f830184610a83565b92915050565b5f5ffd5b5f5ffd5b5f601f19601f8301169050919050565b7f4e487b71000000000000000000000000000000000000000000000000000000005f52604160045260245ffd5b610af982610ab3565b810181811067ffffffffffffffff82111715610b1857610b17610ac3565b5b80604052505050565b5f610b2a610954565b9050610b368282610af0565b919050565b5f67ffffffffffffffff821115610b5557610b54610ac3565b5b610b5e82610ab3565b9050602081019050919050565b828183375f83830152505050565b5f610b8b610b8684610b3b565b610b21565b905082815260208101848484011115610ba757610ba6610aaf565b5b610bb2848285610b6b565b509392505050565b5f82601f830112610bce57610bcd610aab565b5b8135610bde848260208601610b79565b91505092915050565b5f60208284031215610bfc57610bfb61095d565b5b5f82013567ffffffffffffffff811115610c1957610c18610961565b5b610c2584828501610bba565b91505092915050565b5f67ffffffffffffffff821115610c4857610c47610ac3565b5b602082029050602081019050919050565b5f5ffd5b5f819050919050565b610c6f81610c5d565b8114610c79575f5ffd5b50565b5f81359050610c8a81610c66565b92915050565b5f610ca2610c9d84610c2e565b610b21565b90508083825260208201905060208402830185811115610cc557610cc4610c59565b5b835b81811015610cee5780610cda8882610c7c565b845260208401935050602081019050610cc7565b5050509392505050565b5f82601f830112610d0c57610d0b610aab565b5b8135610d1c848260208601610c90565b91505092915050565b5f5f60408385031215610d3b57610d3a61095d565b5b5f610d4885828601610a31565b925050602083013567ffffffffffffffff811115610d6957610d68610961565b5b610d7585828601610cf8565b9150509250929050565b5f81519050919050565b5f82825260208201905092915050565b8281835e5f83830152505050565b5f610db182610d7f565b610dbb8185610d89565b9350610dcb818560208601610d99565b610dd481610ab3565b840191505092915050565b5f6020820190508181035f830152610df78184610da7565b905092915050565b5f8160601b9050919050565b5f610e1582610dff565b9050919050565b5f610e2682610e0b565b9050919050565b610e3e610e3982610984565b610e1c565b82525050565b5f819050919050565b610e5e610e59826109ea565b610e44565b82525050565b5f610e6f8285610e2d565b601482019150610e7f8284610e4d565b6020820191508190509392505050565b7f4e487b71000000000000000000000000000000000000000000000000000000005f52602260045260245ffd5b5f6002820490506001821680610ed357607f821691505b602082108103610ee657610ee5610e8f565b5b50919050565b5f81905092915050565b5f819050815f5260205f209050919050565b5f8154610f1481610ebc565b610f1e8186610eec565b9450600182165f8114610f385760018114610f4d57610f7f565b60ff1983168652811515820286019350610f7f565b610f5685610ef6565b5f5b83811015610f7757815481890152600182019150602081019050610f58565b838801955050505b50505092915050565b5f610f938284610f08565b915081905092915050565b5f7fff0000000000000000000000000000000000000000000000000000000000000082169050919050565b5f819050919050565b610fe3610fde82610f9e565b610fc9565b82525050565b5f819050919050565b611003610ffe82610c5d565b610fe9565b82525050565b5f6110148287610fd2565b6001820191506110248286610e2d565b6014820191506110348285610ff2565b6020820191506110448284610ff2565b60208201915081905095945050505050565b5f6020601f8301049050919050565b5f82821b905092915050565b5f600883026110a07fffffffffffffffffffffffffffffffffffffffffffffffffffffffffffffffff82611065565b6110aa8683611065565b95508019841693508086168417925050509392505050565b5f819050919050565b5f6110e56110e06110db846109ea565b6110c2565b6109ea565b9050919050565b5f819050919050565b6110fe836110cb565b61111261110a826110ec565b848454611071565b825550505050565b5f5f905090565b61112961111a565b6111348184846110f5565b505050565b5b818110156111575761114c5f82611121565b60018101905061113a565b5050565b601f82111561119c5761116d81610ef6565b61117684611056565b81016020851015611185578190505b61119961119185611056565b830182611139565b50505b505050565b5f82821c905092915050565b5f6111bc5f19846008026111a1565b1980831691505092915050565b5f6111d483836111ad565b9150826002028217905092915050565b6111ed82610d7f565b67ffffffffffffffff81111561120657611205610ac3565b5b6112108254610ebc565b61121b82828561115b565b5f60209050601f83116001811461124c575f841561123a578287015190505b61124485826111c9565b8655506112ab565b601f19841661125a86610ef6565b5f5b828110156112815784890151825560018201915060208501945060208101905061125c565b8683101561129e578489015161129a601f8916826111ad565b8355505b6001600288020188555050505b505050505050565b7f4e487b71000000000000000000000000000000000000000000000000000000005f52601160045260245ffd5b5f6112ea826109ea565b91506112f5836109ea565b925082820190508082111561130d5761130c6112b3565b5b92915050565b5f82825260208201905092915050565b7f5a6b4f776e6572466163746f72793a206465706c6f796d656e74206661696c655f8201527f6400000000000000000000000000000000000000000000000000000000000000602082015250565b5f61137d602183611313565b915061138882611323565b604082019050919050565b5f6020820190508181035f8301526113aa81611371565b9050919050565b7f4e487b71000000000000000000000000000000000000000000000000000000005f52603260045260245ffd5b5f81519050919050565b5f82825260208201905092915050565b5f819050602082019050919050565b61141081610984565b82525050565b5f6114218383611407565b60208301905092915050565b5f602082019050919050565b5f611443826113de565b61144d81856113e8565b9350611458836113f8565b805f5b8381101561148857815161146f8882611416565b975061147a8361142d565b92505060018101905061145b565b5085935050505092915050565b5f819050919050565b5f60ff82169050919050565b5f6114c46114bf6114ba84611495565b6110c2565b61149e565b9050919050565b6114d4816114aa565b82525050565b50565b5f6114e85f83611313565b91506114f3826114da565b5f82019050919050565b5f819050919050565b5f61152061151b611516846114fd565b6110c2565b61149e565b9050919050565b61153081611506565b82525050565b5f610100820190508181035f83015261154f818a611439565b905061155e60208301896114cb565b61156b6040830188610a83565b818103606083015261157c816114dd565b905061158b6080830187610a83565b61159860a0830186610a83565b6115a560c0830185611527565b6115b260e0830184610a83565b98975050505050505050565b5f6115d86115d36115ce846114fd565b6110c2565b6109ea565b9050919050565b6115e8816115be565b82525050565b5f6060820190506116015f830186610a83565b81810360208301526116138185610da7565b905061162260408301846115df565b949350505050565b5f61163482610965565b9050919050565b5f6116458261162a565b9050919050565b6116558161163b565b811461165f575f5ffd5b50565b5f815190506116708161164c565b92915050565b5f6020828403121561168b5761168a61095d565b5b5f61169884828501611662565b91505092915050565b7f5a6b4f776e6572466163746f72793a20736166652070726f7879206465706c6f5f8201527f796d656e74206661696c65640000000000000000000000000000000000000000602082015250565b5f6116fb602c83611313565b9150611706826116a1565b604082019050919050565b5f6020820190508181035f830152611728816116ef565b9050919050565b5f81519050919050565b5f82825260208201905092915050565b5f819050602082019050919050565b61176181610c5d565b82525050565b5f6117728383611758565b60208301905092915050565b5f602082019050919050565b5f6117948261172f565b61179e8185611739565b93506117a983611749565b805f5b838110156117d95781516117c08882611767565b97506117cb8361177e565b9250506001810190506117ac565b5085935050505092915050565b5f6080820190506117f95f830187610a83565b61180660208301866109f3565b6118136040830185610a83565b8181036060830152611825818461178a565b905095945050505050565b5f8115159050919050565b61184481611830565b811461184e575f5ffd5b50565b5f8151905061185f8161183b565b92915050565b5f6020828403121561187a5761187961095d565b5b5f61188784828501611851565b91505092915050565b7f5a6b4f776e6572466163746f72793a207a6b206f776e657220696e697469616c5f8201527f697a6174696f6e206661696c6564000000000000000000000000000000000000602082015250565b5f6118ea602e83611313565b91506118f582611890565b604082019050919050565b5f6020820190508181035f830152611917816118de565b905091905056fea26469706673582212209dbb5a3085f888633f22b976365df1f57737e5f5423932a7cf4892d7392ca84c64736f6c634300081c0033","linkReferences":{}},"methodIdentifiers":{"deploy(uint256,bytes32[])":"1f768eb4","implBytecode()":"9503f143","nonce()":"affed0e0","nonceByDeployer(address)":"0c876fda","precomputeAddress(address,uint256)":"133edc96","recursiveVerifier()":"ac8c2933","safeFallbackHandlerAddress()":"b5b6fc24","safeProxyFactoryAddress()":"214f2339","setBytecode(bytes)":"1673d2f5"},"id":20}