{"abi":[{"type":"function","name":"getNonce","inputs":[],"outputs":[{"name":"","type":"uint256","internalType":"uint256"}],"stateMutability":"view"},{"type":"function","name":"getThreshold","inputs":[],"outputs":[{"name":"","type":"uint256","internalType":"uint256"}],"stateMutability":"view"},{"type":"function","name":"initialize","inputs":[{"name":"_safeProxyAddress","type":"address","internalType":"address"},{"name":"_singersInitCode","type":"bytes","internalType":"bytes"}],"outputs":[],"stateMutability":"nonpayable"},{"type":"function","name":"isValidSignature","inputs":[{"name":"_hash","type":"bytes32","internalType":"bytes32"},{"name":"_signature","type":"bytes","internalType":"bytes"}],"outputs":[{"name":"","type":"bytes4","internalType":"bytes4"}],"stateMutability":"view"},{"type":"function","name":"safeProxyAddress","inputs":[],"outputs":[{"name":"","type":"address","internalType":"address"}],"stateMutability":"view"},{"type":"function","name":"singersInitCode","inputs":[],"outputs":[{"name":"","type":"bytes","internalType":"bytes"}],"stateMutability":"view"}],"bytecode":{"object":"0x608060405234801561000f575f80fd5b50610d698061001d5f395ff3fe608060405234801561000f575f80fd5b5060043610610060575f3560e01c8063031537f5146100645780631626ba7e14610082578063d087d288146100b2578063d1f57894146100d0578063e75235b8146100ec578063f9b838211461010a575b5f80fd5b61006c610128565b6040516100799190610550565b60405180910390f35b61009c600480360381019061009791906106e9565b61014b565b6040516100a9919061077d565b60405180910390f35b6100ba61015c565b6040516100c791906107ae565b60405180910390f35b6100ea60048036038101906100e591906107f1565b6102c7565b005b6100f461031a565b60405161010191906107ae565b60405180910390f35b610112610485565b60405161011f91906108c5565b60405180910390f35b5f8054906101000a900473ffffffffffffffffffffffffffffffffffffffff1681565b5f631626ba7e60e01b905092915050565b5f806040516024016040516020818303038152906040527faffed0e0000000000000000000000000000000000000000000000000000000007bffffffffffffffffffffffffffffffffffffffffffffffffffffffff19166020820180517bffffffffffffffffffffffffffffffffffffffffffffffffffffffff838183161783525050505090505f805f8054906101000a900473ffffffffffffffffffffffffffffffffffffffff1673ffffffffffffffffffffffffffffffffffffffff1683604051610229919061091f565b5f60405180830381855afa9150503d805f8114610261576040519150601f19603f3d011682016040523d82523d5f602084013e610266565b606091505b5091509150816102ab576040517f08c379a00000000000000000000000000000000000000000000000000000000081526004016102a29061098f565b60405180910390fd5b808060200190518101906102bf91906109d7565b935050505090565b815f806101000a81548173ffffffffffffffffffffffffffffffffffffffff021916908373ffffffffffffffffffffffffffffffffffffffff16021790555080600190816103159190610bfc565b505050565b5f806040516024016040516020818303038152906040527f42cde4e8000000000000000000000000000000000000000000000000000000007bffffffffffffffffffffffffffffffffffffffffffffffffffffffff19166020820180517bffffffffffffffffffffffffffffffffffffffffffffffffffffffff838183161783525050505090505f805f8054906101000a900473ffffffffffffffffffffffffffffffffffffffff1673ffffffffffffffffffffffffffffffffffffffff16836040516103e7919061091f565b5f60405180830381855afa9150503d805f811461041f576040519150601f19603f3d011682016040523d82523d5f602084013e610424565b606091505b509150915081610469576040517f08c379a000000000000000000000000000000000000000000000000000000000815260040161046090610d15565b60405180910390fd5b8080602001905181019061047d91906109d7565b935050505090565b6001805461049290610a2f565b80601f01602080910402602001604051908101604052809291908181526020018280546104be90610a2f565b80156105095780601f106104e057610100808354040283529160200191610509565b820191905f5260205f20905b8154815290600101906020018083116104ec57829003601f168201915b505050505081565b5f73ffffffffffffffffffffffffffffffffffffffff82169050919050565b5f61053a82610511565b9050919050565b61054a81610530565b82525050565b5f6020820190506105635f830184610541565b92915050565b5f604051905090565b5f80fd5b5f80fd5b5f819050919050565b61058c8161057a565b8114610596575f80fd5b50565b5f813590506105a781610583565b92915050565b5f80fd5b5f80fd5b5f601f19601f8301169050919050565b7f4e487b71000000000000000000000000000000000000000000000000000000005f52604160045260245ffd5b6105fb826105b5565b810181811067ffffffffffffffff8211171561061a576106196105c5565b5b80604052505050565b5f61062c610569565b905061063882826105f2565b919050565b5f67ffffffffffffffff821115610657576106566105c5565b5b610660826105b5565b9050602081019050919050565b828183375f83830152505050565b5f61068d6106888461063d565b610623565b9050828152602081018484840111156106a9576106a86105b1565b5b6106b484828561066d565b509392505050565b5f82601f8301126106d0576106cf6105ad565b5b81356106e084826020860161067b565b91505092915050565b5f80604083850312156106ff576106fe610572565b5b5f61070c85828601610599565b925050602083013567ffffffffffffffff81111561072d5761072c610576565b5b610739858286016106bc565b9150509250929050565b5f7fffffffff0000000000000000000000000000000000000000000000000000000082169050919050565b61077781610743565b82525050565b5f6020820190506107905f83018461076e565b92915050565b5f819050919050565b6107a881610796565b82525050565b5f6020820190506107c15f83018461079f565b92915050565b6107d081610530565b81146107da575f80fd5b50565b5f813590506107eb816107c7565b92915050565b5f806040838503121561080757610806610572565b5b5f610814858286016107dd565b925050602083013567ffffffffffffffff81111561083557610834610576565b5b610841858286016106bc565b9150509250929050565b5f81519050919050565b5f82825260208201905092915050565b5f5b83811015610882578082015181840152602081019050610867565b5f8484015250505050565b5f6108978261084b565b6108a18185610855565b93506108b1818560208601610865565b6108ba816105b5565b840191505092915050565b5f6020820190508181035f8301526108dd818461088d565b905092915050565b5f81905092915050565b5f6108f98261084b565b61090381856108e5565b9350610913818560208601610865565b80840191505092915050565b5f61092a82846108ef565b915081905092915050565b5f82825260208201905092915050565b7f4661696c656420746f20676574206e6f6e6365000000000000000000000000005f82015250565b5f610979601383610935565b915061098482610945565b602082019050919050565b5f6020820190508181035f8301526109a68161096d565b9050919050565b6109b681610796565b81146109c0575f80fd5b50565b5f815190506109d1816109ad565b92915050565b5f602082840312156109ec576109eb610572565b5b5f6109f9848285016109c3565b91505092915050565b7f4e487b71000000000000000000000000000000000000000000000000000000005f52602260045260245ffd5b5f6002820490506001821680610a4657607f821691505b602082108103610a5957610a58610a02565b5b50919050565b5f819050815f5260205f209050919050565b5f6020601f8301049050919050565b5f82821b905092915050565b5f60088302610abb7fffffffffffffffffffffffffffffffffffffffffffffffffffffffffffffffff82610a80565b610ac58683610a80565b95508019841693508086168417925050509392505050565b5f819050919050565b5f610b00610afb610af684610796565b610add565b610796565b9050919050565b5f819050919050565b610b1983610ae6565b610b2d610b2582610b07565b848454610a8c565b825550505050565b5f90565b610b41610b35565b610b4c818484610b10565b505050565b5b81811015610b6f57610b645f82610b39565b600181019050610b52565b5050565b601f821115610bb457610b8581610a5f565b610b8e84610a71565b81016020851015610b9d578190505b610bb1610ba985610a71565b830182610b51565b50505b505050565b5f82821c905092915050565b5f610bd45f1984600802610bb9565b1980831691505092915050565b5f610bec8383610bc5565b9150826002028217905092915050565b610c058261084b565b67ffffffffffffffff811115610c1e57610c1d6105c5565b5b610c288254610a2f565b610c33828285610b73565b5f60209050601f831160018114610c64575f8415610c52578287015190505b610c5c8582610be1565b865550610cc3565b601f198416610c7286610a5f565b5f5b82811015610c9957848901518255600182019150602085019450602081019050610c74565b86831015610cb65784890151610cb2601f891682610bc5565b8355505b6001600288020188555050505b505050505050565b7f4661696c656420746f20676574207468726573686f6c640000000000000000005f82015250565b5f610cff601783610935565b9150610d0a82610ccb565b602082019050919050565b5f6020820190508181035f830152610d2c81610cf3565b905091905056fea26469706673582212208fb6bc455301630d77136b766080b16589b5a14e2d46f6f712842bc03007ce8964736f6c63430008170033","linkReferences":{}},"methodIdentifiers":{"getNonce()":"d087d288","getThreshold()":"e75235b8","initialize(address,bytes)":"d1f57894","isValidSignature(bytes32,bytes)":"1626ba7e","safeProxyAddress()":"031537f5","singersInitCode()":"f9b83821"},"id":24}