{"abi":[{"type":"function","name":"getNonce","inputs":[],"outputs":[{"name":"","type":"uint256","internalType":"uint256"}],"stateMutability":"view"},{"type":"function","name":"getThreshold","inputs":[],"outputs":[{"name":"","type":"uint256","internalType":"uint256"}],"stateMutability":"view"},{"type":"function","name":"hashed_identifiers","inputs":[],"outputs":[{"name":"","type":"bytes32","internalType":"bytes32"}],"stateMutability":"view"},{"type":"function","name":"identifiers","inputs":[{"name":"","type":"uint256","internalType":"uint256"}],"outputs":[{"name":"","type":"bytes32","internalType":"bytes32"}],"stateMutability":"view"},{"type":"function","name":"initialize","inputs":[{"name":"_safeProxyAddress","type":"address","internalType":"address"},{"name":"_threshold","type":"uint256","internalType":"uint256"},{"name":"_verifier","type":"address","internalType":"address"},{"name":"_identifiers","type":"bytes32[]","internalType":"bytes32[]"}],"outputs":[],"stateMutability":"nonpayable"},{"type":"function","name":"isInitialized","inputs":[],"outputs":[{"name":"","type":"bool","internalType":"bool"}],"stateMutability":"view"},{"type":"function","name":"isValidSignature","inputs":[{"name":"_hash","type":"bytes32","internalType":"bytes32"},{"name":"_signature","type":"bytes","internalType":"bytes"}],"outputs":[{"name":"","type":"bytes4","internalType":"bytes4"}],"stateMutability":"view"},{"type":"function","name":"safeProxyAddress","inputs":[],"outputs":[{"name":"","type":"address","internalType":"address"}],"stateMutability":"view"},{"type":"function","name":"threshold","inputs":[],"outputs":[{"name":"","type":"uint256","internalType":"uint256"}],"stateMutability":"view"},{"type":"function","name":"verifier","inputs":[],"outputs":[{"name":"","type":"address","internalType":"address"}],"stateMutability":"view"}],"bytecode":{"object":"0x6080604052348015600e575f5ffd5b5061141b8061001c5f395ff3fe608060405234801561000f575f5ffd5b506004361061009c575f3560e01c806342cde4e81161006457806342cde4e81461015a578063d087d28814610178578063d8a4633114610196578063e75235b8146101b4578063f6842ba4146101d25761009c565b8063031537f5146100a05780631626ba7e146100be57806328f2d4da146100ee5780632b7ac3f31461011e578063392e53cd1461013c575b5f5ffd5b6100a86101ee565b6040516100b59190610861565b60405180910390f35b6100d860048036038101906100d391906109fa565b610212565b6040516100e59190610a8e565b60405180910390f35b61010860048036038101906101039190610ada565b610345565b6040516101159190610b14565b60405180910390f35b610126610365565b6040516101339190610861565b60405180910390f35b61014461038a565b6040516101519190610b47565b60405180910390f35b61016261039d565b60405161016f9190610b6f565b60405180910390f35b6101806103a3565b60405161018d9190610b6f565b60405180910390f35b61019e61050f565b6040516101ab9190610b14565b60405180910390f35b6101bc610515565b6040516101c99190610b6f565b60405180910390f35b6101ec60048036038101906101e79190610c76565b610681565b005b5f5f9054906101000a900473ffffffffffffffffffffffffffffffffffffffff1681565b5f5f5f838060200190518101906102299190610e1b565b9150915060015f9054906101000a900473ffffffffffffffffffffffffffffffffffffffff1673ffffffffffffffffffffffffffffffffffffffff1663ea50d0e483836040518363ffffffff1660e01b8152600401610289929190610f9a565b602060405180830381865afa1580156102a4573d5f5f3e3d5ffd5b505050506040513d601f19601f820116820180604052508101906102c89190610ff9565b50806040516020016102da91906110b0565b6040516020818303038152906040528051906020012060045414610333576040517f08c379a000000000000000000000000000000000000000000000000000000000815260040161032a90611120565b60405180910390fd5b631626ba7e60e01b9250505092915050565b60038181548110610354575f80fd5b905f5260205f20015f915090505481565b60015f9054906101000a900473ffffffffffffffffffffffffffffffffffffffff1681565b600160149054906101000a900460ff1681565b60025481565b5f5f6040516024016040516020818303038152906040527faffed0e0000000000000000000000000000000000000000000000000000000007bffffffffffffffffffffffffffffffffffffffffffffffffffffffff19166020820180517bffffffffffffffffffffffffffffffffffffffffffffffffffffffff838183161783525050505090505f5f5f5f9054906101000a900473ffffffffffffffffffffffffffffffffffffffff1673ffffffffffffffffffffffffffffffffffffffff16836040516104719190611178565b5f60405180830381855afa9150503d805f81146104a9576040519150601f19603f3d011682016040523d82523d5f602084013e6104ae565b606091505b5091509150816104f3576040517f08c379a00000000000000000000000000000000000000000000000000000000081526004016104ea906111d8565b60405180910390fd5b80806020019051810190610507919061120a565b935050505090565b60045481565b5f5f6040516024016040516020818303038152906040527f42cde4e8000000000000000000000000000000000000000000000000000000007bffffffffffffffffffffffffffffffffffffffffffffffffffffffff19166020820180517bffffffffffffffffffffffffffffffffffffffffffffffffffffffff838183161783525050505090505f5f5f5f9054906101000a900473ffffffffffffffffffffffffffffffffffffffff1673ffffffffffffffffffffffffffffffffffffffff16836040516105e39190611178565b5f60405180830381855afa9150503d805f811461061b576040519150601f19603f3d011682016040523d82523d5f602084013e610620565b606091505b509150915081610665576040517f08c379a000000000000000000000000000000000000000000000000000000000815260040161065c9061127f565b60405180910390fd5b80806020019051810190610679919061120a565b935050505090565b600160149054906101000a900460ff16156106d1576040517f08c379a00000000000000000000000000000000000000000000000000000000081526004016106c8906112e7565b60405180910390fd5b835f5f6101000a81548173ffffffffffffffffffffffffffffffffffffffff021916908373ffffffffffffffffffffffffffffffffffffffff16021790555060018060146101000a81548160ff021916908315150217905550826002819055508160015f6101000a81548173ffffffffffffffffffffffffffffffffffffffff021916908373ffffffffffffffffffffffffffffffffffffffff16021790555080600390805190602001906107879291906107bc565b50600360405160200161079a91906113cf565b6040516020818303038152906040528051906020012060048190555050505050565b828054828255905f5260205f209081019282156107f6579160200282015b828111156107f55782518255916020019190600101906107da565b5b5090506108039190610807565b5090565b5b8082111561081e575f815f905550600101610808565b5090565b5f73ffffffffffffffffffffffffffffffffffffffff82169050919050565b5f61084b82610822565b9050919050565b61085b81610841565b82525050565b5f6020820190506108745f830184610852565b92915050565b5f604051905090565b5f5ffd5b5f5ffd5b5f819050919050565b61089d8161088b565b81146108a7575f5ffd5b50565b5f813590506108b881610894565b92915050565b5f5ffd5b5f5ffd5b5f601f19601f8301169050919050565b7f4e487b71000000000000000000000000000000000000000000000000000000005f52604160045260245ffd5b61090c826108c6565b810181811067ffffffffffffffff8211171561092b5761092a6108d6565b5b80604052505050565b5f61093d61087a565b90506109498282610903565b919050565b5f67ffffffffffffffff821115610968576109676108d6565b5b610971826108c6565b9050602081019050919050565b828183375f83830152505050565b5f61099e6109998461094e565b610934565b9050828152602081018484840111156109ba576109b96108c2565b5b6109c584828561097e565b509392505050565b5f82601f8301126109e1576109e06108be565b5b81356109f184826020860161098c565b91505092915050565b5f5f60408385031215610a1057610a0f610883565b5b5f610a1d858286016108aa565b925050602083013567ffffffffffffffff811115610a3e57610a3d610887565b5b610a4a858286016109cd565b9150509250929050565b5f7fffffffff0000000000000000000000000000000000000000000000000000000082169050919050565b610a8881610a54565b82525050565b5f602082019050610aa15f830184610a7f565b92915050565b5f819050919050565b610ab981610aa7565b8114610ac3575f5ffd5b50565b5f81359050610ad481610ab0565b92915050565b5f60208284031215610aef57610aee610883565b5b5f610afc84828501610ac6565b91505092915050565b610b0e8161088b565b82525050565b5f602082019050610b275f830184610b05565b92915050565b5f8115159050919050565b610b4181610b2d565b82525050565b5f602082019050610b5a5f830184610b38565b92915050565b610b6981610aa7565b82525050565b5f602082019050610b825f830184610b60565b92915050565b610b9181610841565b8114610b9b575f5ffd5b50565b5f81359050610bac81610b88565b92915050565b5f67ffffffffffffffff821115610bcc57610bcb6108d6565b5b602082029050602081019050919050565b5f5ffd5b5f610bf3610bee84610bb2565b610934565b90508083825260208201905060208402830185811115610c1657610c15610bdd565b5b835b81811015610c3f5780610c2b88826108aa565b845260208401935050602081019050610c18565b5050509392505050565b5f82601f830112610c5d57610c5c6108be565b5b8135610c6d848260208601610be1565b91505092915050565b5f5f5f5f60808587031215610c8e57610c8d610883565b5b5f610c9b87828801610b9e565b9450506020610cac87828801610ac6565b9350506040610cbd87828801610b9e565b925050606085013567ffffffffffffffff811115610cde57610cdd610887565b5b610cea87828801610c49565b91505092959194509250565b8281835e5f83830152505050565b5f610d16610d118461094e565b610934565b905082815260208101848484011115610d3257610d316108c2565b5b610d3d848285610cf6565b509392505050565b5f82601f830112610d5957610d586108be565b5b8151610d69848260208601610d04565b91505092915050565b5f81519050610d8081610894565b92915050565b5f610d98610d9384610bb2565b610934565b90508083825260208201905060208402830185811115610dbb57610dba610bdd565b5b835b81811015610de45780610dd08882610d72565b845260208401935050602081019050610dbd565b5050509392505050565b5f82601f830112610e0257610e016108be565b5b8151610e12848260208601610d86565b91505092915050565b5f5f60408385031215610e3157610e30610883565b5b5f83015167ffffffffffffffff811115610e4e57610e4d610887565b5b610e5a85828601610d45565b925050602083015167ffffffffffffffff811115610e7b57610e7a610887565b5b610e8785828601610dee565b9150509250929050565b5f81519050919050565b5f82825260208201905092915050565b5f610eb582610e91565b610ebf8185610e9b565b9350610ecf818560208601610cf6565b610ed8816108c6565b840191505092915050565b5f81519050919050565b5f82825260208201905092915050565b5f819050602082019050919050565b610f158161088b565b82525050565b5f610f268383610f0c565b60208301905092915050565b5f602082019050919050565b5f610f4882610ee3565b610f528185610eed565b9350610f5d83610efd565b805f5b83811015610f8d578151610f748882610f1b565b9750610f7f83610f32565b925050600181019050610f60565b5085935050505092915050565b5f6040820190508181035f830152610fb28185610eab565b90508181036020830152610fc68184610f3e565b90509392505050565b610fd881610b2d565b8114610fe2575f5ffd5b50565b5f81519050610ff381610fcf565b92915050565b5f6020828403121561100e5761100d610883565b5b5f61101b84828501610fe5565b91505092915050565b5f81905092915050565b6110378161088b565b82525050565b5f611048838361102e565b60208301905092915050565b5f61105e82610ee3565b6110688185611024565b935061107383610efd565b805f5b838110156110a357815161108a888261103d565b975061109583610f32565b925050600181019050611076565b5085935050505092915050565b5f6110bb8284611054565b915081905092915050565b5f82825260208201905092915050565b7f496e76616c6964207369676e61747572650000000000000000000000000000005f82015250565b5f61110a6011836110c6565b9150611115826110d6565b602082019050919050565b5f6020820190508181035f830152611137816110fe565b9050919050565b5f81905092915050565b5f61115282610e91565b61115c818561113e565b935061116c818560208601610cf6565b80840191505092915050565b5f6111838284611148565b915081905092915050565b7f4661696c656420746f20676574206e6f6e6365000000000000000000000000005f82015250565b5f6111c26013836110c6565b91506111cd8261118e565b602082019050919050565b5f6020820190508181035f8301526111ef816111b6565b9050919050565b5f8151905061120481610ab0565b92915050565b5f6020828403121561121f5761121e610883565b5b5f61122c848285016111f6565b91505092915050565b7f4661696c656420746f20676574207468726573686f6c640000000000000000005f82015250565b5f6112696017836110c6565b915061127482611235565b602082019050919050565b5f6020820190508181035f8301526112968161125d565b9050919050565b7f5a6b4f776e65723a20616c726561647920696e697469616c697a6564000000005f82015250565b5f6112d1601c836110c6565b91506112dc8261129d565b602082019050919050565b5f6020820190508181035f8301526112fe816112c5565b9050919050565b5f81549050919050565b5f819050815f5260205f209050919050565b5f815f1c9050919050565b5f819050919050565b5f61134761134283611321565b61132c565b9050919050565b5f6113598254611335565b9050919050565b5f600182019050919050565b5f61137682611305565b6113808185611024565b935061138b8361130f565b805f5b838110156113c25761139f8261134e565b6113a9888261103d565b97506113b483611360565b92505060018101905061138e565b5085935050505092915050565b5f6113da828461136c565b91508190509291505056fea26469706673582212207d90f6aa62c45cba2527b46745651a1002b7361e079287d5ec0cc0712152b9ab64736f6c634300081c0033","linkReferences":{}},"methodIdentifiers":{"getNonce()":"d087d288","getThreshold()":"e75235b8","hashed_identifiers()":"d8a46331","identifiers(uint256)":"28f2d4da","initialize(address,uint256,address,bytes32[])":"f6842ba4","isInitialized()":"392e53cd","isValidSignature(bytes32,bytes)":"1626ba7e","safeProxyAddress()":"031537f5","threshold()":"42cde4e8","verifier()":"2b7ac3f3"},"id":19}