{"abi":[{"type":"function","name":"getNonce","inputs":[],"outputs":[{"name":"","type":"uint256","internalType":"uint256"}],"stateMutability":"view"},{"type":"function","name":"getThreshold","inputs":[],"outputs":[{"name":"","type":"uint256","internalType":"uint256"}],"stateMutability":"view"},{"type":"function","name":"initialize","inputs":[{"name":"_safeProxyAddress","type":"address","internalType":"address"},{"name":"_singersInitCode","type":"bytes","internalType":"bytes"},{"name":"_threshold","type":"uint256","internalType":"uint256"}],"outputs":[],"stateMutability":"nonpayable"},{"type":"function","name":"isInitialized","inputs":[],"outputs":[{"name":"","type":"bool","internalType":"bool"}],"stateMutability":"view"},{"type":"function","name":"isValidSignature","inputs":[{"name":"_hash","type":"bytes32","internalType":"bytes32"},{"name":"_signature","type":"bytes","internalType":"bytes"}],"outputs":[{"name":"","type":"bytes4","internalType":"bytes4"}],"stateMutability":"view"},{"type":"function","name":"safeProxyAddress","inputs":[],"outputs":[{"name":"","type":"address","internalType":"address"}],"stateMutability":"view"},{"type":"function","name":"singersInitCode","inputs":[],"outputs":[{"name":"","type":"bytes","internalType":"bytes"}],"stateMutability":"view"},{"type":"function","name":"threshold","inputs":[],"outputs":[{"name":"","type":"uint256","internalType":"uint256"}],"stateMutability":"view"}],"bytecode":{"object":"0x608060405234801561000f575f80fd5b50610f158061001d5f395ff3fe608060405234801561000f575f80fd5b5060043610610086575f3560e01c8063bd557acc11610059578063bd557acc14610114578063d087d28814610130578063e75235b81461014e578063f9b838211461016c57610086565b8063031537f51461008a5780631626ba7e146100a8578063392e53cd146100d857806342cde4e8146100f6575b5f80fd5b61009261018a565b60405161009f919061063b565b60405180910390f35b6100c260048036038101906100bd91906107d4565b6101ad565b6040516100cf9190610868565b60405180910390f35b6100e06101be565b6040516100ed919061089b565b60405180910390f35b6100fe6101d0565b60405161010b91906108cc565b60405180910390f35b61012e60048036038101906101299190610939565b6101d6565b005b61013861029a565b60405161014591906108cc565b60405180910390f35b610156610405565b60405161016391906108cc565b60405180910390f35b610174610570565b6040516101819190610a1f565b60405180910390f35b5f8054906101000a900473ffffffffffffffffffffffffffffffffffffffff1681565b5f631626ba7e60e01b905092915050565b60025f9054906101000a900460ff1681565b60035481565b60025f9054906101000a900460ff1615610225576040517f08c379a000000000000000000000000000000000000000000000000000000000815260040161021c90610a99565b60405180910390fd5b825f806101000a81548173ffffffffffffffffffffffffffffffffffffffff021916908373ffffffffffffffffffffffffffffffffffffffff16021790555081600190816102739190610cb1565b50600160025f6101000a81548160ff02191690831515021790555080600381905550505050565b5f806040516024016040516020818303038152906040527faffed0e0000000000000000000000000000000000000000000000000000000007bffffffffffffffffffffffffffffffffffffffffffffffffffffffff19166020820180517bffffffffffffffffffffffffffffffffffffffffffffffffffffffff838183161783525050505090505f805f8054906101000a900473ffffffffffffffffffffffffffffffffffffffff1673ffffffffffffffffffffffffffffffffffffffff16836040516103679190610dba565b5f60405180830381855afa9150503d805f811461039f576040519150601f19603f3d011682016040523d82523d5f602084013e6103a4565b606091505b5091509150816103e9576040517f08c379a00000000000000000000000000000000000000000000000000000000081526004016103e090610e1a565b60405180910390fd5b808060200190518101906103fd9190610e4c565b935050505090565b5f806040516024016040516020818303038152906040527f42cde4e8000000000000000000000000000000000000000000000000000000007bffffffffffffffffffffffffffffffffffffffffffffffffffffffff19166020820180517bffffffffffffffffffffffffffffffffffffffffffffffffffffffff838183161783525050505090505f805f8054906101000a900473ffffffffffffffffffffffffffffffffffffffff1673ffffffffffffffffffffffffffffffffffffffff16836040516104d29190610dba565b5f60405180830381855afa9150503d805f811461050a576040519150601f19603f3d011682016040523d82523d5f602084013e61050f565b606091505b509150915081610554576040517f08c379a000000000000000000000000000000000000000000000000000000000815260040161054b90610ec1565b60405180910390fd5b808060200190518101906105689190610e4c565b935050505090565b6001805461057d90610ae4565b80601f01602080910402602001604051908101604052809291908181526020018280546105a990610ae4565b80156105f45780601f106105cb576101008083540402835291602001916105f4565b820191905f5260205f20905b8154815290600101906020018083116105d757829003601f168201915b505050505081565b5f73ffffffffffffffffffffffffffffffffffffffff82169050919050565b5f610625826105fc565b9050919050565b6106358161061b565b82525050565b5f60208201905061064e5f83018461062c565b92915050565b5f604051905090565b5f80fd5b5f80fd5b5f819050919050565b61067781610665565b8114610681575f80fd5b50565b5f813590506106928161066e565b92915050565b5f80fd5b5f80fd5b5f601f19601f8301169050919050565b7f4e487b71000000000000000000000000000000000000000000000000000000005f52604160045260245ffd5b6106e6826106a0565b810181811067ffffffffffffffff82111715610705576107046106b0565b5b80604052505050565b5f610717610654565b905061072382826106dd565b919050565b5f67ffffffffffffffff821115610742576107416106b0565b5b61074b826106a0565b9050602081019050919050565b828183375f83830152505050565b5f61077861077384610728565b61070e565b9050828152602081018484840111156107945761079361069c565b5b61079f848285610758565b509392505050565b5f82601f8301126107bb576107ba610698565b5b81356107cb848260208601610766565b91505092915050565b5f80604083850312156107ea576107e961065d565b5b5f6107f785828601610684565b925050602083013567ffffffffffffffff81111561081857610817610661565b5b610824858286016107a7565b9150509250929050565b5f7fffffffff0000000000000000000000000000000000000000000000000000000082169050919050565b6108628161082e565b82525050565b5f60208201905061087b5f830184610859565b92915050565b5f8115159050919050565b61089581610881565b82525050565b5f6020820190506108ae5f83018461088c565b92915050565b5f819050919050565b6108c6816108b4565b82525050565b5f6020820190506108df5f8301846108bd565b92915050565b6108ee8161061b565b81146108f8575f80fd5b50565b5f81359050610909816108e5565b92915050565b610918816108b4565b8114610922575f80fd5b50565b5f813590506109338161090f565b92915050565b5f805f606084860312156109505761094f61065d565b5b5f61095d868287016108fb565b935050602084013567ffffffffffffffff81111561097e5761097d610661565b5b61098a868287016107a7565b925050604061099b86828701610925565b9150509250925092565b5f81519050919050565b5f82825260208201905092915050565b5f5b838110156109dc5780820151818401526020810190506109c1565b5f8484015250505050565b5f6109f1826109a5565b6109fb81856109af565b9350610a0b8185602086016109bf565b610a14816106a0565b840191505092915050565b5f6020820190508181035f830152610a3781846109e7565b905092915050565b5f82825260208201905092915050565b7f5a6b4f776e65723a20616c726561647920696e697469616c697a6564000000005f82015250565b5f610a83601c83610a3f565b9150610a8e82610a4f565b602082019050919050565b5f6020820190508181035f830152610ab081610a77565b9050919050565b7f4e487b71000000000000000000000000000000000000000000000000000000005f52602260045260245ffd5b5f6002820490506001821680610afb57607f821691505b602082108103610b0e57610b0d610ab7565b5b50919050565b5f819050815f5260205f209050919050565b5f6020601f8301049050919050565b5f82821b905092915050565b5f60088302610b707fffffffffffffffffffffffffffffffffffffffffffffffffffffffffffffffff82610b35565b610b7a8683610b35565b95508019841693508086168417925050509392505050565b5f819050919050565b5f610bb5610bb0610bab846108b4565b610b92565b6108b4565b9050919050565b5f819050919050565b610bce83610b9b565b610be2610bda82610bbc565b848454610b41565b825550505050565b5f90565b610bf6610bea565b610c01818484610bc5565b505050565b5b81811015610c2457610c195f82610bee565b600181019050610c07565b5050565b601f821115610c6957610c3a81610b14565b610c4384610b26565b81016020851015610c52578190505b610c66610c5e85610b26565b830182610c06565b50505b505050565b5f82821c905092915050565b5f610c895f1984600802610c6e565b1980831691505092915050565b5f610ca18383610c7a565b9150826002028217905092915050565b610cba826109a5565b67ffffffffffffffff811115610cd357610cd26106b0565b5b610cdd8254610ae4565b610ce8828285610c28565b5f60209050601f831160018114610d19575f8415610d07578287015190505b610d118582610c96565b865550610d78565b601f198416610d2786610b14565b5f5b82811015610d4e57848901518255600182019150602085019450602081019050610d29565b86831015610d6b5784890151610d67601f891682610c7a565b8355505b6001600288020188555050505b505050505050565b5f81905092915050565b5f610d94826109a5565b610d9e8185610d80565b9350610dae8185602086016109bf565b80840191505092915050565b5f610dc58284610d8a565b915081905092915050565b7f4661696c656420746f20676574206e6f6e6365000000000000000000000000005f82015250565b5f610e04601383610a3f565b9150610e0f82610dd0565b602082019050919050565b5f6020820190508181035f830152610e3181610df8565b9050919050565b5f81519050610e468161090f565b92915050565b5f60208284031215610e6157610e6061065d565b5b5f610e6e84828501610e38565b91505092915050565b7f4661696c656420746f20676574207468726573686f6c640000000000000000005f82015250565b5f610eab601783610a3f565b9150610eb682610e77565b602082019050919050565b5f6020820190508181035f830152610ed881610e9f565b905091905056fea264697066735822122060bc87d7d4e8e2df85ec2298fea5e91540f84af090ad57041e1e6dc22608ea0a64736f6c63430008170033","linkReferences":{}},"methodIdentifiers":{"getNonce()":"d087d288","getThreshold()":"e75235b8","initialize(address,bytes,uint256)":"bd557acc","isInitialized()":"392e53cd","isValidSignature(bytes32,bytes)":"1626ba7e","safeProxyAddress()":"031537f5","singersInitCode()":"f9b83821","threshold()":"42cde4e8"},"id":24}