{"abi":[{"type":"function","name":"getNonce","inputs":[],"outputs":[{"name":"","type":"uint256","internalType":"uint256"}],"stateMutability":"view"},{"type":"function","name":"getThreshold","inputs":[],"outputs":[{"name":"","type":"uint256","internalType":"uint256"}],"stateMutability":"view"},{"type":"function","name":"hashed_identifiers","inputs":[],"outputs":[{"name":"","type":"bytes32","internalType":"bytes32"}],"stateMutability":"view"},{"type":"function","name":"identifiers","inputs":[{"name":"","type":"uint256","internalType":"uint256"}],"outputs":[{"name":"","type":"bytes32","internalType":"bytes32"}],"stateMutability":"view"},{"type":"function","name":"initialize","inputs":[{"name":"_safeProxyAddress","type":"address","internalType":"address"},{"name":"_threshold","type":"uint256","internalType":"uint256"},{"name":"_verifier","type":"address","internalType":"address"},{"name":"_identifiers","type":"bytes32[]","internalType":"bytes32[]"}],"outputs":[],"stateMutability":"nonpayable"},{"type":"function","name":"isInitialized","inputs":[],"outputs":[{"name":"","type":"bool","internalType":"bool"}],"stateMutability":"view"},{"type":"function","name":"isValidSignature","inputs":[{"name":"_hash","type":"bytes32","internalType":"bytes32"},{"name":"_signature","type":"bytes","internalType":"bytes"}],"outputs":[{"name":"","type":"bytes4","internalType":"bytes4"}],"stateMutability":"view"},{"type":"function","name":"safeProxyAddress","inputs":[],"outputs":[{"name":"","type":"address","internalType":"address"}],"stateMutability":"view"},{"type":"function","name":"threshold","inputs":[],"outputs":[{"name":"","type":"uint256","internalType":"uint256"}],"stateMutability":"view"},{"type":"function","name":"verifier","inputs":[],"outputs":[{"name":"","type":"address","internalType":"address"}],"stateMutability":"view"}],"bytecode":{"object":"0x6080604052348015600e575f5ffd5b506109ad8061001c5f395ff3fe608060405234801561000f575f5ffd5b506004361061009b575f3560e01c806342cde4e81161006357806342cde4e814610152578063d087d2881461015b578063d8a4633114610163578063e75235b81461016c578063f6842ba414610174575f5ffd5b8063031537f51461009f5780631626ba7e146100ce57806328f2d4da146100fa5780632b7ac3f31461011b578063392e53cd1461012e575b5f5ffd5b5f546100b1906001600160a01b031681565b6040516001600160a01b0390911681526020015b60405180910390f35b6100e16100dc3660046105b2565b610189565b6040516001600160e01b031990911681526020016100c5565b61010d610108366004610629565b610290565b6040519081526020016100c5565b6001546100b1906001600160a01b031681565b60015461014290600160a01b900460ff1681565b60405190151581526020016100c5565b61010d60025481565b61010d6102af565b61010d60045481565b61010d610398565b610187610182366004610720565b61046f565b005b5f808061019884860186610784565b600154604051633a94343960e21b81529294509092506001600160a01b03169063ea50d0e4906101ce9085908590600401610843565b602060405180830381865afa1580156101e9573d5f5f3e3d5ffd5b505050506040513d601f19601f8201168201806040525081019061020d91906108c1565b508060405160200161021f91906108e7565b604051602081830303815290604052805190602001206004541461027e5760405162461bcd60e51b8152602060048201526011602482015270496e76616c6964207369676e617475726560781b60448201526064015b60405180910390fd5b50630b135d3f60e11b95945050505050565b6003818154811061029f575f80fd5b5f91825260209091200154905081565b60408051600481526024810182526020810180516001600160e01b031663057ff68760e51b1790525f805492519092839182916001600160a01b0316906102f790859061091c565b5f60405180830381855afa9150503d805f811461032f576040519150601f19603f3d011682016040523d82523d5f602084013e610334565b606091505b50915091508161037c5760405162461bcd60e51b81526020600482015260136024820152724661696c656420746f20676574206e6f6e636560681b6044820152606401610275565b808060200190518101906103909190610932565b935050505090565b60408051600481526024810182526020810180516001600160e01b0316630859bc9d60e31b1790525f805492519092839182916001600160a01b0316906103e090859061091c565b5f60405180830381855afa9150503d805f8114610418576040519150601f19603f3d011682016040523d82523d5f602084013e61041d565b606091505b50915091508161037c5760405162461bcd60e51b815260206004820152601760248201527f4661696c656420746f20676574207468726573686f6c640000000000000000006044820152606401610275565b600154600160a01b900460ff16156104c95760405162461bcd60e51b815260206004820152601c60248201527f5a6b4f776e65723a20616c726561647920696e697469616c697a6564000000006044820152606401610275565b5f80546001600160a01b038087166001600160a01b0319909216919091179091556001805460028690559184166001600160a81b031990921691909117600160a01b1790558051610521906003906020840190610555565b5060036040516020016105349190610949565b60408051601f19818403018152919052805160209091012060045550505050565b828054828255905f5260205f2090810192821561058e579160200282015b8281111561058e578251825591602001919060010190610573565b5061059a92915061059e565b5090565b5b8082111561059a575f815560010161059f565b5f5f5f604084860312156105c4575f5ffd5b83359250602084013567ffffffffffffffff8111156105e1575f5ffd5b8401601f810186136105f1575f5ffd5b803567ffffffffffffffff811115610607575f5ffd5b866020828401011115610618575f5ffd5b939660209190910195509293505050565b5f60208284031215610639575f5ffd5b5035919050565b80356001600160a01b0381168114610656575f5ffd5b919050565b634e487b7160e01b5f52604160045260245ffd5b604051601f8201601f1916810167ffffffffffffffff811182821017156106985761069861065b565b604052919050565b5f82601f8301126106af575f5ffd5b813567ffffffffffffffff8111156106c9576106c961065b565b8060051b6106d96020820161066f565b918252602081850181019290810190868411156106f4575f5ffd5b6020860192505b838310156107165782358252602092830192909101906106fb565b9695505050505050565b5f5f5f5f60808587031215610733575f5ffd5b61073c85610640565b93506020850135925061075160408601610640565b9150606085013567ffffffffffffffff81111561076c575f5ffd5b610778878288016106a0565b91505092959194509250565b5f5f60408385031215610795575f5ffd5b823567ffffffffffffffff8111156107ab575f5ffd5b8301601f810185136107bb575f5ffd5b803567ffffffffffffffff8111156107d5576107d561065b565b6107e8601f8201601f191660200161066f565b8181528660208385010111156107fc575f5ffd5b816020840160208301375f60208383010152809450505050602083013567ffffffffffffffff81111561082d575f5ffd5b610839858286016106a0565b9150509250929050565b604081525f83518060408401528060208601606085015e5f60608285010152601f19601f820116830190506060810160608483030160208501528085518083526080840191506020870193505f92505b808310156108b65783518252602082019150602084019350600183019250610893565b509695505050505050565b5f602082840312156108d1575f5ffd5b815180151581146108e0575f5ffd5b9392505050565b81515f90829060208501835b828110156109115781518452602093840193909101906001016108f3565b509195945050505050565b5f82518060208501845e5f920191825250919050565b5f60208284031215610942575f5ffd5b5051919050565b5f818354839150845f5260205f205f5b8281101561091157815484526020909301926001918201910161095956fea26469706673582212203ec3e135a19e111741c32b9fcb7022cb0a339d8f3c2e18c9e8fc8f386d7ca85864736f6c634300081c0033","linkReferences":{}},"methodIdentifiers":{"getNonce()":"d087d288","getThreshold()":"e75235b8","hashed_identifiers()":"d8a46331","identifiers(uint256)":"28f2d4da","initialize(address,uint256,address,bytes32[])":"f6842ba4","isInitialized()":"392e53cd","isValidSignature(bytes32,bytes)":"1626ba7e","safeProxyAddress()":"031537f5","threshold()":"42cde4e8","verifier()":"2b7ac3f3"},"id":20}