{"abi":[{"type":"function","name":"createChainSpecificProxyWithNonce","inputs":[{"name":"_singleton","type":"address","internalType":"address"},{"name":"initializer","type":"bytes","internalType":"bytes"},{"name":"saltNonce","type":"uint256","internalType":"uint256"}],"outputs":[{"name":"proxy","type":"address","internalType":"contract SafeProxy"}],"stateMutability":"nonpayable"},{"type":"function","name":"createChainSpecificProxyWithNonceL2","inputs":[{"name":"_singleton","type":"address","internalType":"address"},{"name":"initializer","type":"bytes","internalType":"bytes"},{"name":"saltNonce","type":"uint256","internalType":"uint256"}],"outputs":[{"name":"proxy","type":"address","internalType":"contract SafeProxy"}],"stateMutability":"nonpayable"},{"type":"function","name":"createProxyWithNonce","inputs":[{"name":"_singleton","type":"address","internalType":"address"},{"name":"initializer","type":"bytes","internalType":"bytes"},{"name":"saltNonce","type":"uint256","internalType":"uint256"}],"outputs":[{"name":"proxy","type":"address","internalType":"contract SafeProxy"}],"stateMutability":"nonpayable"},{"type":"function","name":"createProxyWithNonceL2","inputs":[{"name":"_singleton","type":"address","internalType":"address"},{"name":"initializer","type":"bytes","internalType":"bytes"},{"name":"saltNonce","type":"uint256","internalType":"uint256"}],"outputs":[{"name":"proxy","type":"address","internalType":"contract SafeProxy"}],"stateMutability":"nonpayable"},{"type":"function","name":"getChainId","inputs":[],"outputs":[{"name":"","type":"uint256","internalType":"uint256"}],"stateMutability":"view"},{"type":"function","name":"proxyCreationCode","inputs":[],"outputs":[{"name":"","type":"bytes","internalType":"bytes"}],"stateMutability":"pure"},{"type":"event","name":"ChainSpecificProxyCreationL2","inputs":[{"name":"proxy","type":"address","indexed":true,"internalType":"contract SafeProxy"},{"name":"singleton","type":"address","indexed":false,"internalType":"address"},{"name":"initializer","type":"bytes","indexed":false,"internalType":"bytes"},{"name":"saltNonce","type":"uint256","indexed":false,"internalType":"uint256"},{"name":"chainId","type":"uint256","indexed":false,"internalType":"uint256"}],"anonymous":false},{"type":"event","name":"ProxyCreation","inputs":[{"name":"proxy","type":"address","indexed":true,"internalType":"contract SafeProxy"},{"name":"singleton","type":"address","indexed":false,"internalType":"address"}],"anonymous":false},{"type":"event","name":"ProxyCreationL2","inputs":[{"name":"proxy","type":"address","indexed":true,"internalType":"contract SafeProxy"},{"name":"singleton","type":"address","indexed":false,"internalType":"address"},{"name":"initializer","type":"bytes","indexed":false,"internalType":"bytes"},{"name":"saltNonce","type":"uint256","indexed":false,"internalType":"uint256"}],"anonymous":false}],"bytecode":{"object":"0x608060405234801561000f575f80fd5b50610ec78061001d5f395ff3fe608060405234801562000010575f80fd5b506004361062000068575f3560e01c80631688f0b9146200006c5780631a334b0b14620000a25780633408e47014620000d85780634662f9d614620000fa57806353e5d9351462000130578063ec9e80bb1462000152575b5f80fd5b6200008a600480360381019062000084919062000763565b62000188565b60405162000099919062000842565b60405180910390f35b620000c06004803603810190620000ba919062000763565b62000225565b604051620000cf919062000842565b60405180910390f35b620000e26200029b565b604051620000f191906200086e565b60405180910390f35b62000118600480360381019062000112919062000763565b620002a7565b60405162000127919062000842565b60405180910390f35b6200013a62000312565b6040516200014991906200090d565b60405180910390f35b6200017060048036038101906200016a919062000763565b6200033f565b6040516200017f919062000842565b60405180910390f35b5f80838051906020012083604051602001620001a692919062000980565b604051602081830303815290604052805190602001209050620001cb858583620003e7565b91508173ffffffffffffffffffffffffffffffffffffffff167f4f51faf6c4561ff95f067657e43439f0f856d97c04d9ec9070a6199ad418e23586604051620002159190620009c0565b60405180910390a2509392505050565b5f620002338484846200033f565b90508073ffffffffffffffffffffffffffffffffffffffff167f7a1c96f74273709828c0e67ab96189772005d3b4948bc6902693eb21e4e2cc6a8585856200027a6200029b565b6040516200028c9493929190620009db565b60405180910390a29392505050565b5f804690508091505090565b5f620002b584848462000188565b90508073ffffffffffffffffffffffffffffffffffffffff167f6e78ae8c51534f0b801d7aa7cce5a2113f3c3368c61b06fa61415f361d400431858585604051620003039392919062000a2d565b60405180910390a29392505050565b606060405180602001620003269062000553565b6020820181038252601f19601f82011660405250905090565b5f80838051906020012083620003546200029b565b604051602001620003689392919062000a6f565b6040516020818303038152906040528051906020012090506200038d858583620003e7565b91508173ffffffffffffffffffffffffffffffffffffffff167f4f51faf6c4561ff95f067657e43439f0f856d97c04d9ec9070a6199ad418e23586604051620003d79190620009c0565b60405180910390a2509392505050565b5f620003f38462000542565b62000435576040517f08c379a00000000000000000000000000000000000000000000000000000000081526004016200042c9062000b0f565b60405180910390fd5b5f60405180602001620004489062000553565b6020820181038252601f19601f820116604052508573ffffffffffffffffffffffffffffffffffffffff166040516020016200048692919062000b6f565b6040516020818303038152906040529050828151826020015ff591505f73ffffffffffffffffffffffffffffffffffffffff168273ffffffffffffffffffffffffffffffffffffffff160362000513576040517f08c379a00000000000000000000000000000000000000000000000000000000081526004016200050a9062000be8565b60405180910390fd5b5f845111156200053a575f808551602087015f865af162000539576040513d5f823e3d81fd5b5b509392505050565b5f80823b90505f8111915050919050565b6102898062000c0983390190565b5f604051905090565b5f80fd5b5f80fd5b5f73ffffffffffffffffffffffffffffffffffffffff82169050919050565b5f6200059d8262000572565b9050919050565b620005af8162000591565b8114620005ba575f80fd5b50565b5f81359050620005cd81620005a4565b92915050565b5f80fd5b5f80fd5b5f601f19601f8301169050919050565b7f4e487b71000000000000000000000000000000000000000000000000000000005f52604160045260245ffd5b6200062382620005db565b810181811067ffffffffffffffff82111715620006455762000644620005eb565b5b80604052505050565b5f6200065962000561565b905062000667828262000618565b919050565b5f67ffffffffffffffff821115620006895762000688620005eb565b5b6200069482620005db565b9050602081019050919050565b828183375f83830152505050565b5f620006c5620006bf846200066c565b6200064e565b905082815260208101848484011115620006e457620006e3620005d7565b5b620006f1848285620006a1565b509392505050565b5f82601f83011262000710576200070f620005d3565b5b813562000722848260208601620006af565b91505092915050565b5f819050919050565b6200073f816200072b565b81146200074a575f80fd5b50565b5f813590506200075d8162000734565b92915050565b5f805f606084860312156200077d576200077c6200056a565b5b5f6200078c86828701620005bd565b935050602084013567ffffffffffffffff811115620007b057620007af6200056e565b5b620007be86828701620006f9565b9250506040620007d1868287016200074d565b9150509250925092565b5f819050919050565b5f62000804620007fe620007f88462000572565b620007db565b62000572565b9050919050565b5f6200081782620007e4565b9050919050565b5f6200082a826200080b565b9050919050565b6200083c816200081e565b82525050565b5f602082019050620008575f83018462000831565b92915050565b62000868816200072b565b82525050565b5f602082019050620008835f8301846200085d565b92915050565b5f81519050919050565b5f82825260208201905092915050565b5f5b83811015620008c2578082015181840152602081019050620008a5565b5f8484015250505050565b5f620008d98262000889565b620008e5818562000893565b9350620008f7818560208601620008a3565b6200090281620005db565b840191505092915050565b5f6020820190508181035f830152620009278184620008cd565b905092915050565b5f819050919050565b5f819050919050565b6200095662000950826200092f565b62000938565b82525050565b5f819050919050565b6200097a62000974826200072b565b6200095c565b82525050565b5f6200098d828562000941565b6020820191506200099f828462000965565b6020820191508190509392505050565b620009ba8162000591565b82525050565b5f602082019050620009d55f830184620009af565b92915050565b5f608082019050620009f05f830187620009af565b818103602083015262000a048186620008cd565b905062000a1560408301856200085d565b62000a2460608301846200085d565b95945050505050565b5f60608201905062000a425f830186620009af565b818103602083015262000a568185620008cd565b905062000a6760408301846200085d565b949350505050565b5f62000a7c828662000941565b60208201915062000a8e828562000965565b60208201915062000aa0828462000965565b602082019150819050949350505050565b5f82825260208201905092915050565b7f53696e676c65746f6e20636f6e7472616374206e6f74206465706c6f796564005f82015250565b5f62000af7601f8362000ab1565b915062000b048262000ac1565b602082019050919050565b5f6020820190508181035f83015262000b288162000ae9565b9050919050565b5f81905092915050565b5f62000b458262000889565b62000b51818562000b2f565b935062000b63818560208601620008a3565b80840191505092915050565b5f62000b7c828562000b39565b915062000b8a828462000965565b6020820191508190509392505050565b7f437265617465322063616c6c206661696c6564000000000000000000000000005f82015250565b5f62000bd060138362000ab1565b915062000bdd8262000b9a565b602082019050919050565b5f6020820190508181035f83015262000c018162000bc2565b905091905056fe608060405234801561000f575f80fd5b5060405161028938038061028983398181016040528101906100319190610142565b5f73ffffffffffffffffffffffffffffffffffffffff168173ffffffffffffffffffffffffffffffffffffffff160361009f576040517f08c379a0000000000000000000000000000000000000000000000000000000008152600401610096906101ed565b60405180910390fd5b805f806101000a81548173ffffffffffffffffffffffffffffffffffffffff021916908373ffffffffffffffffffffffffffffffffffffffff1602179055505061020b565b5f80fd5b5f73ffffffffffffffffffffffffffffffffffffffff82169050919050565b5f610111826100e8565b9050919050565b61012181610107565b811461012b575f80fd5b50565b5f8151905061013c81610118565b92915050565b5f60208284031215610157576101566100e4565b5b5f6101648482850161012e565b91505092915050565b5f82825260208201905092915050565b7f496e76616c69642073696e676c65746f6e20616464726573732070726f7669645f8201527f6564000000000000000000000000000000000000000000000000000000000000602082015250565b5f6101d760228361016d565b91506101e28261017d565b604082019050919050565b5f6020820190508181035f830152610204816101cb565b9050919050565b6072806102175f395ff3fe60806040525f5463a619486e5f3560e01c036021578060601b606c5260206060f35b365f80375f80365f845af43d5f803e806038573d5ffd5b3d5ff3fea26469706673582212202b8a9a048be9d077f038a529a1e8fdd8fcfc396e905788c294c4fdee63fb4b6d64736f6c63430008170033a264697066735822122083d66d98d52274dc59381a142351d1e00ccc935b9b0db4bac86ac379de72092364736f6c63430008170033","linkReferences":{}},"methodIdentifiers":{"createChainSpecificProxyWithNonce(address,bytes,uint256)":"ec9e80bb","createChainSpecificProxyWithNonceL2(address,bytes,uint256)":"1a334b0b","createProxyWithNonce(address,bytes,uint256)":"1688f0b9","createProxyWithNonceL2(address,bytes,uint256)":"4662f9d6","getChainId()":"3408e470","proxyCreationCode()":"53e5d935"},"id":23}