{"abi":[{"type":"function","name":"createChainSpecificProxyWithNonce","inputs":[{"name":"_singleton","type":"address","internalType":"address"},{"name":"initializer","type":"bytes","internalType":"bytes"},{"name":"saltNonce","type":"uint256","internalType":"uint256"}],"outputs":[{"name":"proxy","type":"address","internalType":"contract SafeProxy"}],"stateMutability":"nonpayable"},{"type":"function","name":"createChainSpecificProxyWithNonceL2","inputs":[{"name":"_singleton","type":"address","internalType":"address"},{"name":"initializer","type":"bytes","internalType":"bytes"},{"name":"saltNonce","type":"uint256","internalType":"uint256"}],"outputs":[{"name":"proxy","type":"address","internalType":"contract SafeProxy"}],"stateMutability":"nonpayable"},{"type":"function","name":"createProxyWithNonce","inputs":[{"name":"_singleton","type":"address","internalType":"address"},{"name":"initializer","type":"bytes","internalType":"bytes"},{"name":"saltNonce","type":"uint256","internalType":"uint256"}],"outputs":[{"name":"proxy","type":"address","internalType":"contract SafeProxy"}],"stateMutability":"nonpayable"},{"type":"function","name":"createProxyWithNonceL2","inputs":[{"name":"_singleton","type":"address","internalType":"address"},{"name":"initializer","type":"bytes","internalType":"bytes"},{"name":"saltNonce","type":"uint256","internalType":"uint256"}],"outputs":[{"name":"proxy","type":"address","internalType":"contract SafeProxy"}],"stateMutability":"nonpayable"},{"type":"function","name":"getChainId","inputs":[],"outputs":[{"name":"","type":"uint256","internalType":"uint256"}],"stateMutability":"view"},{"type":"function","name":"proxyCreationCode","inputs":[],"outputs":[{"name":"","type":"bytes","internalType":"bytes"}],"stateMutability":"pure"},{"type":"event","name":"ChainSpecificProxyCreationL2","inputs":[{"name":"proxy","type":"address","indexed":true,"internalType":"contract SafeProxy"},{"name":"singleton","type":"address","indexed":false,"internalType":"address"},{"name":"initializer","type":"bytes","indexed":false,"internalType":"bytes"},{"name":"saltNonce","type":"uint256","indexed":false,"internalType":"uint256"},{"name":"chainId","type":"uint256","indexed":false,"internalType":"uint256"}],"anonymous":false},{"type":"event","name":"ProxyCreation","inputs":[{"name":"proxy","type":"address","indexed":true,"internalType":"contract SafeProxy"},{"name":"singleton","type":"address","indexed":false,"internalType":"address"}],"anonymous":false},{"type":"event","name":"ProxyCreationL2","inputs":[{"name":"proxy","type":"address","indexed":true,"internalType":"contract SafeProxy"},{"name":"singleton","type":"address","indexed":false,"internalType":"address"},{"name":"initializer","type":"bytes","indexed":false,"internalType":"bytes"},{"name":"saltNonce","type":"uint256","indexed":false,"internalType":"uint256"}],"anonymous":false}],"bytecode":{"object":"0x6080604052348015600e575f5ffd5b506107038061001c5f395ff3fe608060405234801561000f575f5ffd5b5060043610610060575f3560e01c80631688f0b9146100645780631a334b0b146100945780633408e470146100a75780634662f9d6146100b557806353e5d935146100c8578063ec9e80bb146100dd575b5f5ffd5b6100776100723660046103cb565b6100f0565b6040516001600160a01b0390911681526020015b60405180910390f35b6100776100a23660046103cb565b610184565b60405146815260200161008b565b6100776100c33660046103cb565b6101e0565b6100d061022b565b60405161008b91906104d3565b6100776100eb3660046103cb565b610255565b5f5f838051906020012083604051602001610115929190918252602082015260400190565b604051602081830303815290604052805190602001209050610138858583610286565b6040516001600160a01b038781168252919350908316907f4f51faf6c4561ff95f067657e43439f0f856d97c04d9ec9070a6199ad418e2359060200160405180910390a2509392505050565b5f610190848484610255565b90506001600160a01b0381167f7a1c96f74273709828c0e67ab96189772005d3b4948bc6902693eb21e4e2cc6a858585466040516101d194939291906104ec565b60405180910390a29392505050565b5f6101ec8484846100f0565b9050806001600160a01b03167f6e78ae8c51534f0b801d7aa7cce5a2113f3c3368c61b06fa61415f361d4004318585856040516101d193929190610522565b60606040518060200161023d906103aa565b601f1982820381018352601f90910116604052919050565b5f5f8380519060200120836102674690565b6040805160208101949094528301919091526060820152608001610115565b5f833b6102da5760405162461bcd60e51b815260206004820152601f60248201527f53696e676c65746f6e20636f6e7472616374206e6f74206465706c6f7965640060448201526064015b60405180910390fd5b5f604051806020016102eb906103aa565b601f1982820381018352601f90910116604081905261031891906001600160a01b03881690602001610555565b6040516020818303038152906040529050828151826020015ff591506001600160a01b0382166103805760405162461bcd60e51b815260206004820152601360248201527210dc99585d194c8818d85b1b0819985a5b1959606a1b60448201526064016102d1565b8351156103a2575f5f8551602087015f865af16103a2576040513d5f823e3d81fd5b509392505050565b61015e8061057083390190565b634e487b7160e01b5f52604160045260245ffd5b5f5f5f606084860312156103dd575f5ffd5b83356001600160a01b03811681146103f3575f5ffd5b9250602084013567ffffffffffffffff81111561040e575f5ffd5b8401601f8101861361041e575f5ffd5b803567ffffffffffffffff811115610438576104386103b7565b604051601f8201601f19908116603f0116810167ffffffffffffffff81118282101715610467576104676103b7565b60405281815282820160200188101561047e575f5ffd5b816020840160208301375f9181016020019190915293969395505050506040919091013590565b5f81518084528060208401602086015e5f602082860101526020601f19601f83011685010191505092915050565b602081525f6104e560208301846104a5565b9392505050565b6001600160a01b03851681526080602082018190525f9061050f908301866104a5565b6040830194909452506060015292915050565b6001600160a01b03841681526060602082018190525f90610545908301856104a5565b9050826040830152949350505050565b5f83518060208601845e919091019182525060200191905056fe6080604052348015600e575f5ffd5b5060405161015e38038061015e833981016040819052602b9160b2565b6001600160a01b038116608f5760405162461bcd60e51b815260206004820152602260248201527f496e76616c69642073696e676c65746f6e20616464726573732070726f766964604482015261195960f21b606482015260840160405180910390fd5b5f80546001600160a01b0319166001600160a01b039290921691909117905560dd565b5f6020828403121560c1575f5ffd5b81516001600160a01b038116811460d6575f5ffd5b9392505050565b6075806100e95f395ff3fe60806040525f5463a619486e5f3560e01c036021578060601b606c5260206060f35b365f5f375f5f365f845af490503d5f5f3e80603a573d5ffd5b503d5ff3fea2646970667358221220657871b3a8cb2e34e34094c78e72ba9cb2c4d9e3f7f2826042d4188459bb299b64736f6c634300081c0033a2646970667358221220e435188279c283598fc8f8c572c2ed87436cf2404673f2ca92e1489f314138ed64736f6c634300081c0033","linkReferences":{}},"methodIdentifiers":{"createChainSpecificProxyWithNonce(address,bytes,uint256)":"ec9e80bb","createChainSpecificProxyWithNonceL2(address,bytes,uint256)":"1a334b0b","createProxyWithNonce(address,bytes,uint256)":"1688f0b9","createProxyWithNonceL2(address,bytes,uint256)":"4662f9d6","getChainId()":"3408e470","proxyCreationCode()":"53e5d935"},"id":18}